{
  "_format": "hh-sol-artifact-1",
  "contractName": "OracleSaleMock",
  "sourceName": "contracts/mocks/sale/abstract/OracleSaleMock.sol",
  "abi": [
    {
      "inputs": [
        {
          "internalType": "address payable",
          "name": "payoutWallet_",
          "type": "address"
        },
        {
          "internalType": "uint256",
          "name": "skusCapacity",
          "type": "uint256"
        },
        {
          "internalType": "uint256",
          "name": "tokensPerSkuCapacity",
          "type": "uint256"
        },
        {
          "internalType": "address",
          "name": "referenceToken",
          "type": "address"
        }
      ],
      "stateMutability": "nonpayable",
      "type": "constructor"
    },
    {
      "anonymous": false,
      "inputs": [
        {
          "indexed": false,
          "internalType": "bytes32[]",
          "name": "names",
          "type": "bytes32[]"
        },
        {
          "indexed": false,
          "internalType": "bytes32[]",
          "name": "values",
          "type": "bytes32[]"
        }
      ],
      "name": "MagicValues",
      "type": "event"
    },
    {
      "anonymous": false,
      "inputs": [
        {
          "indexed": true,
          "internalType": "address",
          "name": "previousOwner",
          "type": "address"
        },
        {
          "indexed": true,
          "internalType": "address",
          "name": "newOwner",
          "type": "address"
        }
      ],
      "name": "OwnershipTransferred",
      "type": "event"
    },
    {
      "anonymous": false,
      "inputs": [
        {
          "indexed": false,
          "internalType": "address",
          "name": "account",
          "type": "address"
        }
      ],
      "name": "Paused",
      "type": "event"
    },
    {
      "anonymous": false,
      "inputs": [
        {
          "indexed": false,
          "internalType": "address",
          "name": "payoutWallet_",
          "type": "address"
        }
      ],
      "name": "PayoutWalletSet",
      "type": "event"
    },
    {
      "anonymous": false,
      "inputs": [
        {
          "indexed": true,
          "internalType": "address",
          "name": "purchaser",
          "type": "address"
        },
        {
          "indexed": false,
          "internalType": "address",
          "name": "recipient",
          "type": "address"
        },
        {
          "indexed": true,
          "internalType": "address",
          "name": "token",
          "type": "address"
        },
        {
          "indexed": true,
          "internalType": "bytes32",
          "name": "sku",
          "type": "bytes32"
        },
        {
          "indexed": false,
          "internalType": "uint256",
          "name": "quantity",
          "type": "uint256"
        },
        {
          "indexed": false,
          "internalType": "bytes",
          "name": "userData",
          "type": "bytes"
        },
        {
          "indexed": false,
          "internalType": "uint256",
          "name": "totalPrice",
          "type": "uint256"
        },
        {
          "indexed": false,
          "internalType": "bytes",
          "name": "extData",
          "type": "bytes"
        }
      ],
      "name": "Purchase",
      "type": "event"
    },
    {
      "anonymous": false,
      "inputs": [
        {
          "indexed": false,
          "internalType": "bytes32",
          "name": "sku",
          "type": "bytes32"
        },
        {
          "indexed": false,
          "internalType": "uint256",
          "name": "totalSupply",
          "type": "uint256"
        },
        {
          "indexed": false,
          "internalType": "uint256",
          "name": "maxQuantityPerPurchase",
          "type": "uint256"
        },
        {
          "indexed": false,
          "internalType": "address",
          "name": "notificationsReceiver",
          "type": "address"
        }
      ],
      "name": "SkuCreation",
      "type": "event"
    },
    {
      "anonymous": false,
      "inputs": [
        {
          "indexed": true,
          "internalType": "bytes32",
          "name": "sku",
          "type": "bytes32"
        },
        {
          "indexed": false,
          "internalType": "address[]",
          "name": "tokens",
          "type": "address[]"
        },
        {
          "indexed": false,
          "internalType": "uint256[]",
          "name": "prices",
          "type": "uint256[]"
        }
      ],
      "name": "SkuPricingUpdate",
      "type": "event"
    },
    {
      "anonymous": false,
      "inputs": [
        {
          "indexed": false,
          "internalType": "address",
          "name": "account",
          "type": "address"
        }
      ],
      "name": "Started",
      "type": "event"
    },
    {
      "anonymous": false,
      "inputs": [
        {
          "indexed": false,
          "internalType": "bool",
          "name": "handled",
          "type": "bool"
        },
        {
          "indexed": false,
          "internalType": "bytes32[]",
          "name": "pricingData",
          "type": "bytes32[]"
        },
        {
          "indexed": false,
          "internalType": "uint256",
          "name": "totalPrice",
          "type": "uint256"
        }
      ],
      "name": "UnderscoreOraclePricingResult",
      "type": "event"
    },
    {
      "anonymous": false,
      "inputs": [
        {
          "indexed": false,
          "internalType": "address",
          "name": "account",
          "type": "address"
        }
      ],
      "name": "Unpaused",
      "type": "event"
    },
    {
      "inputs": [],
      "name": "PRICE_CONVERT_VIA_ORACLE",
      "outputs": [
        {
          "internalType": "uint256",
          "name": "",
          "type": "uint256"
        }
      ],
      "stateMutability": "view",
      "type": "function"
    },
    {
      "inputs": [],
      "name": "SUPPLY_UNLIMITED",
      "outputs": [
        {
          "internalType": "uint256",
          "name": "",
          "type": "uint256"
        }
      ],
      "stateMutability": "view",
      "type": "function"
    },
    {
      "inputs": [],
      "name": "TOKEN_ETH",
      "outputs": [
        {
          "internalType": "address",
          "name": "",
          "type": "address"
        }
      ],
      "stateMutability": "view",
      "type": "function"
    },
    {
      "inputs": [
        {
          "internalType": "address payable",
          "name": "recipient",
          "type": "address"
        },
        {
          "internalType": "address",
          "name": "token",
          "type": "address"
        },
        {
          "internalType": "bytes32",
          "name": "sku",
          "type": "bytes32"
        },
        {
          "internalType": "uint256",
          "name": "quantity",
          "type": "uint256"
        },
        {
          "internalType": "bytes",
          "name": "userData",
          "type": "bytes"
        }
      ],
      "name": "callUnderscoreOraclePricing",
      "outputs": [],
      "stateMutability": "nonpayable",
      "type": "function"
    },
    {
      "inputs": [
        {
          "internalType": "bytes32",
          "name": "sku",
          "type": "bytes32"
        },
        {
          "internalType": "address[]",
          "name": "tokens",
          "type": "address[]"
        },
        {
          "internalType": "uint256[]",
          "name": "prices",
          "type": "uint256[]"
        }
      ],
      "name": "callUnderscoreSetTokenPrices",
      "outputs": [],
      "stateMutability": "nonpayable",
      "type": "function"
    },
    {
      "inputs": [
        {
          "internalType": "address[]",
          "name": "tokens",
          "type": "address[]"
        },
        {
          "internalType": "bytes",
          "name": "data",
          "type": "bytes"
        }
      ],
      "name": "conversionRates",
      "outputs": [
        {
          "internalType": "uint256[]",
          "name": "rates",
          "type": "uint256[]"
        }
      ],
      "stateMutability": "view",
      "type": "function"
    },
    {
      "inputs": [
        {
          "internalType": "bytes32",
          "name": "sku",
          "type": "bytes32"
        },
        {
          "internalType": "uint256",
          "name": "totalSupply",
          "type": "uint256"
        },
        {
          "internalType": "uint256",
          "name": "maxQuantityPerPurchase",
          "type": "uint256"
        },
        {
          "internalType": "address",
          "name": "notificationsReceiver",
          "type": "address"
        }
      ],
      "name": "createSku",
      "outputs": [],
      "stateMutability": "nonpayable",
      "type": "function"
    },
    {
      "inputs": [
        {
          "internalType": "address payable",
          "name": "recipient",
          "type": "address"
        },
        {
          "internalType": "address",
          "name": "token",
          "type": "address"
        },
        {
          "internalType": "bytes32",
          "name": "sku",
          "type": "bytes32"
        },
        {
          "internalType": "uint256",
          "name": "quantity",
          "type": "uint256"
        },
        {
          "internalType": "bytes",
          "name": "userData",
          "type": "bytes"
        }
      ],
      "name": "estimatePurchase",
      "outputs": [
        {
          "internalType": "uint256",
          "name": "totalPrice",
          "type": "uint256"
        },
        {
          "internalType": "bytes32[]",
          "name": "pricingData",
          "type": "bytes32[]"
        }
      ],
      "stateMutability": "view",
      "type": "function"
    },
    {
      "inputs": [
        {
          "internalType": "bytes32",
          "name": "sku",
          "type": "bytes32"
        }
      ],
      "name": "getSkuInfo",
      "outputs": [
        {
          "internalType": "uint256",
          "name": "totalSupply",
          "type": "uint256"
        },
        {
          "internalType": "uint256",
          "name": "remainingSupply",
          "type": "uint256"
        },
        {
          "internalType": "uint256",
          "name": "maxQuantityPerPurchase",
          "type": "uint256"
        },
        {
          "internalType": "address",
          "name": "notificationsReceiver",
          "type": "address"
        },
        {
          "internalType": "address[]",
          "name": "tokens",
          "type": "address[]"
        },
        {
          "internalType": "uint256[]",
          "name": "prices",
          "type": "uint256[]"
        }
      ],
      "stateMutability": "view",
      "type": "function"
    },
    {
      "inputs": [],
      "name": "getSkus",
      "outputs": [
        {
          "internalType": "bytes32[]",
          "name": "skus",
          "type": "bytes32[]"
        }
      ],
      "stateMutability": "view",
      "type": "function"
    },
    {
      "inputs": [
        {
          "internalType": "address",
          "name": "",
          "type": "address"
        },
        {
          "internalType": "address",
          "name": "",
          "type": "address"
        }
      ],
      "name": "mockConversionRates",
      "outputs": [
        {
          "internalType": "uint256",
          "name": "",
          "type": "uint256"
        }
      ],
      "stateMutability": "view",
      "type": "function"
    },
    {
      "inputs": [],
      "name": "owner",
      "outputs": [
        {
          "internalType": "address",
          "name": "",
          "type": "address"
        }
      ],
      "stateMutability": "view",
      "type": "function"
    },
    {
      "inputs": [],
      "name": "pause",
      "outputs": [],
      "stateMutability": "nonpayable",
      "type": "function"
    },
    {
      "inputs": [],
      "name": "paused",
      "outputs": [
        {
          "internalType": "bool",
          "name": "",
          "type": "bool"
        }
      ],
      "stateMutability": "view",
      "type": "function"
    },
    {
      "inputs": [],
      "name": "payoutWallet",
      "outputs": [
        {
          "internalType": "address payable",
          "name": "",
          "type": "address"
        }
      ],
      "stateMutability": "view",
      "type": "function"
    },
    {
      "inputs": [
        {
          "internalType": "address payable",
          "name": "recipient",
          "type": "address"
        },
        {
          "internalType": "address",
          "name": "token",
          "type": "address"
        },
        {
          "internalType": "bytes32",
          "name": "sku",
          "type": "bytes32"
        },
        {
          "internalType": "uint256",
          "name": "quantity",
          "type": "uint256"
        },
        {
          "internalType": "bytes",
          "name": "userData",
          "type": "bytes"
        }
      ],
      "name": "purchaseFor",
      "outputs": [],
      "stateMutability": "payable",
      "type": "function"
    },
    {
      "inputs": [],
      "name": "referenceToken",
      "outputs": [
        {
          "internalType": "address",
          "name": "",
          "type": "address"
        }
      ],
      "stateMutability": "view",
      "type": "function"
    },
    {
      "inputs": [
        {
          "internalType": "address",
          "name": "fromToken",
          "type": "address"
        },
        {
          "internalType": "address",
          "name": "toToken",
          "type": "address"
        },
        {
          "internalType": "uint256",
          "name": "rate",
          "type": "uint256"
        }
      ],
      "name": "setMockConversionRate",
      "outputs": [],
      "stateMutability": "nonpayable",
      "type": "function"
    },
    {
      "inputs": [
        {
          "internalType": "address payable",
          "name": "payoutWallet_",
          "type": "address"
        }
      ],
      "name": "setPayoutWallet",
      "outputs": [],
      "stateMutability": "nonpayable",
      "type": "function"
    },
    {
      "inputs": [],
      "name": "start",
      "outputs": [],
      "stateMutability": "nonpayable",
      "type": "function"
    },
    {
      "inputs": [],
      "name": "startedAt",
      "outputs": [
        {
          "internalType": "uint256",
          "name": "",
          "type": "uint256"
        }
      ],
      "stateMutability": "view",
      "type": "function"
    },
    {
      "inputs": [
        {
          "internalType": "address",
          "name": "newOwner",
          "type": "address"
        }
      ],
      "name": "transferOwnership",
      "outputs": [],
      "stateMutability": "nonpayable",
      "type": "function"
    },
    {
      "inputs": [],
      "name": "unpause",
      "outputs": [],
      "stateMutability": "nonpayable",
      "type": "function"
    },
    {
      "inputs": [
        {
          "internalType": "bytes32",
          "name": "sku",
          "type": "bytes32"
        },
        {
          "internalType": "address[]",
          "name": "tokens",
          "type": "address[]"
        },
        {
          "internalType": "uint256[]",
          "name": "prices",
          "type": "uint256[]"
        }
      ],
      "name": "updateSkuPricing",
      "outputs": [],
      "stateMutability": "nonpayable",
      "type": "function"
    }
  ],
  "bytecode": "0x60c06040523480156200001157600080fd5b506040516200348e3803806200348e833981810160405260808110156200003757600080fd5b5080516020820151604080840151606090940151600080546001600160a01b031916339081178255925194959394919286928692869286928692869286928592859285926001928691839182917f8be0079c531659141344cd1fd0a4f28419497f9722a3daafe3b4186f6b6457e0908290a3506001600160a01b03811662000106576040805162461bcd60e51b815260206004820152601460248201527f5061796f75743a207a65726f2061646472657373000000000000000000000000604482015290519081900360640190fd5b600180546001600160a01b0383166001600160a01b0319909116811790915560408051918252517fdd880d24a789958a6398c99c2e54ce31bc10a638cbc42f7dd34285479ae0f8559181900360200190a150506003805460ff1916911515919091179055608082905260a081905260408051600280825260608201835260009260208301908036833750506040805160028082526060820183529394506000939092509060208301908036833750508351919250680a89e968a9cbe8aa8960bb1b9173eeeeeeeeeeeeeeeeeeeeeeeeeeeeeeeeeeeeeeee91508490600090620001eb57fe5b60200260200101836000815181106200020057fe5b602002602001018281525082815250505060001960001b6f14d55414131657d5539312535255115160821b90836001815181106200023a57fe5b60200260200101836001815181106200024f57fe5b60200260200101828152508281525050506000805160206200346e8339815191528282604051808060200180602001838103835285818151815260200191508051906020019060200280838360005b83811015620002b85781810151838201526020016200029e565b50505050905001838103825284818151815260200191508051906020019060200280838360005b83811015620002f9578181015183820152602001620002df565b5050505090500194505050505060405180910390a15050600780546001600160a01b0319166001600160a01b03891617905550600094506001935084925062000340915050565b506040519080825280602002602001820160405280156200036b578160200160208202803683370190505b50604080516001808252818301909252919250600091906020808301908036833701905050905060001960001b7f50524943455f434f4e564552545f5649415f4f5241434c4500000000000000009083600081518110620003c857fe5b6020026020010183600081518110620003dd57fe5b60200260200101828152508281525050506000805160206200346e8339815191528282604051808060200180602001838103835285818151815260200191508051906020019060200280838360005b83811015620004465781810151838201526020016200042c565b50505050905001838103825284818151815260200191508051906020019060200280838360005b83811015620004875781810151838201526020016200046d565b5050505090500194505050505060405180910390a15050505050505050505060805160a051612fa4620004ca600039806122fa5250806116e05250612fa46000f3fe60806040526004361061018b5760003560e01c80638da5cb5b116100d6578063be9a65551161007f578063de96521511610059578063de965215146109a5578063f21f537d146109e8578063f2fde38b146109fd5761018b565b8063be9a655514610886578063c7b778db1461089b578063d2da15391461096a5761018b565b8063a0cf0735116100b0578063a0cf073514610679578063a963b2571461071b578063b3150ef0146107b05761018b565b80638da5cb5b1461063d5780639865bcc8146106525780639e049545146106525761018b565b80635c975abb116101385780636b8f9c43116101125780636b8f9c43146105e05780638456cb59146106135780638488bb4e146106285761018b565b80635c975abb146104175780635e6e9f701461044057806361bd38511461057b5761018b565b80632c87927b116101695780632c87927b146103a65780633f4ba83a146103ed5780635c4fafc7146104025761018b565b80631265b651146101905780631323b066146101c15780632a8a45bc146102be575b600080fd5b34801561019c57600080fd5b506101a5610a30565b604080516001600160a01b039092168252519081900360200190f35b3480156101cd57600080fd5b50610263600480360360a08110156101e457600080fd5b6001600160a01b03823581169260208101359091169160408201359160608101359181019060a08101608082013564010000000081111561022457600080fd5b82018360208201111561023657600080fd5b8035906020019184600183028401116401000000008311171561025857600080fd5b509092509050610a3f565b6040518083815260200180602001828103825283818151815260200191508051906020019060200280838360005b838110156102a9578181015183820152602001610291565b50505050905001935050505060405180910390f35b3480156102ca57600080fd5b506102e8600480360360208110156102e157600080fd5b5035610b34565b60405180878152602001868152602001858152602001846001600160a01b031681526020018060200180602001838103835285818151815260200191508051906020019060200280838360005b8381101561034d578181015183820152602001610335565b50505050905001838103825284818151815260200191508051906020019060200280838360005b8381101561038c578181015183820152602001610374565b505050509050019850505050505050505060405180910390f35b3480156103b257600080fd5b506103eb600480360360808110156103c957600080fd5b50803590602081013590604081013590606001356001600160a01b0316610cd9565b005b3480156103f957600080fd5b506103eb610ceb565b34801561040e57600080fd5b506101a5610d59565b34801561042357600080fd5b5061042c610d71565b604080519115158252519081900360200190f35b34801561044c57600080fd5b506103eb6004803603606081101561046357600080fd5b8135919081019060408101602082013564010000000081111561048557600080fd5b82018360208201111561049757600080fd5b803590602001918460208302840111640100000000831117156104b957600080fd5b919080806020026020016040519081016040528093929190818152602001838360200280828437600092019190915250929594936020810193503591505064010000000081111561050957600080fd5b82018360208201111561051b57600080fd5b8035906020019184602083028401116401000000008311171561053d57600080fd5b919080806020026020016040519081016040528093929190818152602001838360200280828437600092019190915250929550610d7a945050505050565b34801561058757600080fd5b50610590610f57565b60408051602080825283518183015283519192839290830191858101910280838360005b838110156105cc5781810151838201526020016105b4565b505050509050019250505060405180910390f35b3480156105ec57600080fd5b506103eb6004803603602081101561060357600080fd5b50356001600160a01b0316610fb2565b34801561061f57600080fd5b506103eb61107f565b34801561063457600080fd5b506101a56110e6565b34801561064957600080fd5b506101a56110f5565b34801561065e57600080fd5b50610667611104565b60408051918252519081900360200190f35b34801561068557600080fd5b506103eb600480360360a081101561069c57600080fd5b6001600160a01b03823581169260208101359091169160408201359160608101359181019060a0810160808201356401000000008111156106dc57600080fd5b8201836020820111156106ee57600080fd5b8035906020019184600183028401116401000000008311171561071057600080fd5b50909250905061110a565b6103eb600480360360a081101561073157600080fd5b6001600160a01b03823581169260208101359091169160408201359160608101359181019060a08101608082013564010000000081111561077157600080fd5b82018360208201111561078357600080fd5b803590602001918460018302840111640100000000831117156107a557600080fd5b50909250905061124d565b3480156107bc57600080fd5b506103eb600480360360608110156107d357600080fd5b813591908101906040810160208201356401000000008111156107f557600080fd5b82018360208201111561080757600080fd5b8035906020019184602083028401116401000000008311171561082957600080fd5b91939092909160208101903564010000000081111561084757600080fd5b82018360208201111561085957600080fd5b8035906020019184602083028401116401000000008311171561087b57600080fd5b509092509050611333565b34801561089257600080fd5b506103eb6113c0565b3480156108a757600080fd5b50610590600480360360408110156108be57600080fd5b8101906020810181356401000000008111156108d957600080fd5b8201836020820111156108eb57600080fd5b8035906020019184602083028401116401000000008311171561090d57600080fd5b91939092909160208101903564010000000081111561092b57600080fd5b82018360208201111561093d57600080fd5b8035906020019184600183028401116401000000008311171561095f57600080fd5b5090925090506113d3565b34801561097657600080fd5b506106676004803603604081101561098d57600080fd5b506001600160a01b03813581169160200135166114bf565b3480156109b157600080fd5b506103eb600480360360608110156109c857600080fd5b506001600160a01b038135811691602081013590911690604001356114dc565b3480156109f457600080fd5b50610667611508565b348015610a0957600080fd5b506103eb60048036036020811015610a2057600080fd5b50356001600160a01b031661150e565b6007546001600160a01b031681565b6000606060025460001415610a9b576040805162461bcd60e51b815260206004820152601660248201527f537461727461626c653a206e6f74207374617274656400000000000000000000604482015290519081900360640190fd5b610aa3611574565b610aab612edc565b610ab36115cc565b6001600160a01b03908116825289811660208084019190915290891660408084019190915260608301899052608083018890528051601f870183900483028101830190915285815290869086908190840183828082843760009201919091525050505060a0820152610b24816115d0565b9250925050965096945050505050565b6000818152600660205260408120819081908190606090819083610b5a600483016115f7565b82549850905087610bb2576040805162461bcd60e51b815260206004820152601660248201527f53616c653a206e6f6e2d6578697374656e7420736b7500000000000000000000604482015290519081900360640190fd5b60018201546002830154600384015491985096506001600160a01b031694508067ffffffffffffffff81118015610be857600080fd5b50604051908082528060200260200182016040528015610c12578160200160208202803683370190505b5093508067ffffffffffffffff81118015610c2c57600080fd5b50604051908082528060200260200182016040528015610c56578160200160208202803683370190505b50925060005b81811015610ccd57600080610c7460048601846115fb565b915091508160001c878481518110610c8857fe5b60200260200101906001600160a01b031690816001600160a01b0316815250508060001c868481518110610cb857fe5b60209081029190910101525050600101610c5c565b50505091939550919395565b610ce58484848461168c565b50505050565b600254610d3f576040805162461bcd60e51b815260206004820152601660248201527f537461727461626c653a206e6f74207374617274656400000000000000000000604482015290519081900360640190fd5b610d4f610d4a6115cc565b6118c3565b610d5761198a565b565b73eeeeeeeeeeeeeeeeeeeeeeeeeeeeeeeeeeeeeeee81565b60035460ff1681565b610d85610d4a6115cc565b815181518114610ddc576040805162461bcd60e51b815260206004820152601960248201527f53616c653a20696e636f6e73697374656e742061727261797300000000000000604482015290519081900360640190fd5b60008481526006602052604090208054610e3d576040805162461bcd60e51b815260206004820152601660248201527f53616c653a206e6f6e2d6578697374656e7420736b7500000000000000000000604482015290519081900360640190fd5b6004810182610e88576000610e51826115f7565b905060005b81811015610e81576000610e6a84826115fb565b509050610e7784826119e2565b5050600101610e56565b5050610e93565b610e93818686611ac2565b857fcb3fe5489e0cd43d0f4a33d1e09a4a0463a03d0d38f56165530854e5540db1438686604051808060200180602001838103835285818151815260200191508051906020019060200280838360005b83811015610efb578181015183820152602001610ee3565b50505050905001838103825284818151815260200191508051906020019060200280838360005b83811015610f3a578181015183820152602001610f22565b5050505090500194505050505060405180910390a2505050505050565b60606004600001805480602002602001604051908101604052809291908181526020018280548015610fa857602002820191906000526020600020905b815481526020019060010190808311610f94575b5050505050905090565b610fbd610d4a6115cc565b6001600160a01b038116611018576040805162461bcd60e51b815260206004820152601460248201527f5061796f75743a207a65726f2061646472657373000000000000000000000000604482015290519081900360640190fd5b6001805473ffffffffffffffffffffffffffffffffffffffff19166001600160a01b03838116919091179182905560408051929091168252517fdd880d24a789958a6398c99c2e54ce31bc10a638cbc42f7dd34285479ae0f855916020908290030190a150565b6002546110d3576040805162461bcd60e51b815260206004820152601660248201527f537461727461626c653a206e6f74207374617274656400000000000000000000604482015290519081900360640190fd5b6110de610d4a6115cc565b610d57611b4a565b6001546001600160a01b031681565b6000546001600160a01b031690565b60001981565b611112612edc565b61111a6115cc565b6001600160a01b03908116825287811660208084019190915290871660408084019190915260608301879052608083018690528051601f8501839004830281018301909152838152908490849081908401838280828437600092018290525060a08601949094525050508581526006602052604081209060048201906111a08483611b88565b905060006111af858484611bf8565b90507fef3c1fcb3e366e2dc0d5fcc64ae0ae590fb62d4338c60a102f4f8136c06d4424818660e001518760c0015160405180841515815260200180602001838152602001828103825284818151815260200191508051906020019060200280838360005b8381101561122b578181015183820152602001611213565b5050505090500194505050505060405180910390a15050505050505050505050565b6002546112a1576040805162461bcd60e51b815260206004820152601660248201527f537461727461626c653a206e6f74207374617274656400000000000000000000604482015290519081900360640190fd5b6112a9611574565b6112b1612edc565b6112b96115cc565b6001600160a01b03908116825287811660208084019190915290871660408084019190915260608301879052608083018690528051601f850183900483028101830190915283815290849084908190840183828082843760009201919091525050505060a082015261132a81611cf7565b50505050505050565b6000600660008781526020019081526020016000209050600081600401905061132a8187878080602002602001604051908101604052809392919081815260200183836020028082843760009201919091525050604080516020808b0282810182019093528a82529093508a925089918291850190849080828437600092019190915250611ac292505050565b6113cb610d4a6115cc565b610d4f611d24565b6060838067ffffffffffffffff811180156113ed57600080fd5b50604051908082528060200260200182016040528015611417578160200160208202803683370190505b50915060005b818110156114b55761149687878381811061143457fe5b905060200201356001600160a01b0316600760009054906101000a90046001600160a01b031687878080601f016020809104026020016040519081016040528093929190818152602001838380828437600092019190915250611da692505050565b8382815181106114a257fe5b602090810291909101015260010161141d565b5050949350505050565b600860209081526000928352604080842090915290825290205481565b6001600160a01b0392831660009081526008602090815260408083209490951682529290925291902055565b60025490565b611519610d4a6115cc565b6000805473ffffffffffffffffffffffffffffffffffffffff19166001600160a01b0383811691821780845560405192939116917f8be0079c531659141344cd1fd0a4f28419497f9722a3daafe3b4186f6b6457e09190a350565b60035460ff1615610d57576040805162461bcd60e51b815260206004820152601060248201527f5061757361626c653a2070617573656400000000000000000000000000000000604482015290519081900360640190fd5b3390565b600060606115dd83611e1e565b6115e6836120c8565b505060c081015160e0909101519091565b5490565b815460009081908310611655576040805162461bcd60e51b815260206004820152601c60248201527f456e756d4d61703a20696e646578206f7574206f6620626f756e647300000000604482015290519081900360640190fd5b600084600001848154811061166657fe5b906000526020600020906002020190508060000154816001015492509250509250929050565b826116de576040805162461bcd60e51b815260206004820152601160248201527f53616c653a207a65726f20737570706c79000000000000000000000000000000604482015290519081900360640190fd5b7f000000000000000000000000000000000000000000000000000000000000000061170960046115f7565b1061175b576040805162461bcd60e51b815260206004820152601360248201527f53616c653a20746f6f206d616e7920736b757300000000000000000000000000604482015290519081900360640190fd5b61176660048561216a565b6117b7576040805162461bcd60e51b815260206004820152601960248201527f53616c653a20736b7520616c7265616479206372656174656400000000000000604482015290519081900360640190fd5b6001600160a01b03811615611829576117d8816001600160a01b03166121b4565b611829576040805162461bcd60e51b815260206004820152601b60248201527f53616c653a206e6f6e2d636f6e74726163742072656365697665720000000000604482015290519081900360640190fd5b60008481526006602090815260409182902085815560018101869055600281018590556003810180546001600160a01b03861673ffffffffffffffffffffffffffffffffffffffff1990911681179091558351888152928301879052828401869052606083015291517f38bd4aabce684540cd61351b91f2f5facf9d6963934347e25aab93d87ae7ac149181900360800190a15050505050565b306001600160a01b0316638da5cb5b6040518163ffffffff1660e01b815260040160206040518083038186803b1580156118fc57600080fd5b505afa158015611910573d6000803e3d6000fd5b505050506040513d602081101561192657600080fd5b50516001600160a01b03828116911614611987576040805162461bcd60e51b815260206004820152601660248201527f4f776e61626c653a206e6f7420746865206f776e657200000000000000000000604482015290519081900360640190fd5b50565b6119926121ba565b6003805460ff191690557f5db9ee0a495bf2e6ff9c91a7834c1ba4fdd244a5e8aa4e537bd38aeae4b073aa6119c56115cc565b604080516001600160a01b039092168252519081900360200190a1565b60008181526001830160205260408120548015611ab65783546000198083019190810190600090879083908110611a1557fe5b9060005260206000209060020201905080876000018481548110611a3557fe5b600091825260208083208454600290930201918255600193840154918401919091558354825289830190526040902090840190558654879080611a7457fe5b6000828152602080822060026000199094019384020182815560019081018390559290935588815289820190925260408220919091559450611abc9350505050565b60009150505b92915050565b611acd838383612211565b611ad6836115f7565b1580611af45750600754611af49084906001600160a01b0316612375565b611b45576040805162461bcd60e51b815260206004820152601860248201527f53616c653a206e6f207265666572656e636520746f6b656e0000000000000000604482015290519081900360640190fd5b505050565b611b52611574565b6003805460ff191660011790557f62e78cea01bee320cd4e420270b5ea74000d11b0c9f74754ebdbfc544b05a2586119c56115cc565b6040820151600090611ba49083906001600160a01b031661238d565b905080611abc576040805162461bcd60e51b815260206004820152601f60248201527f53616c653a20756e737570706f72746564207061796d656e7420746f6b656e00604482015290519081900360640190fd5b60006000198214611c0b57506000611cf0565b600754600090611c259085906001600160a01b031661238d565b604086015160075460a0880151929350600092611c4c92916001600160a01b031690611da6565b90506000611c838760800151611c7d84611c77670de0b6b3a76400008861241d90919063ffffffff16565b90612476565b9061241d565b604080516002808252606082018352929350919060208301908036833750505060e088018190528051869190600090611cb857fe5b6020026020010181815250508160001b8760e00151600181518110611cd957fe5b602090810291909101015260c08701525060019150505b9392505050565b611d0081611e1e565b611d09816120c8565b611d12816124dd565b611d1b8161262c565b61198781612678565b60025415611d79576040805162461bcd60e51b815260206004820152601260248201527f537461727461626c653a20737461727465640000000000000000000000000000604482015290519081900360640190fd5b426002557f27029695aa5f602a4ee81f4c32dfa86e562f200a17966496f3a7c3f2ec0f94176119c56115cc565b6001600160a01b0380841660009081526008602090815260408083209386168352929052205480611cf0576040805162461bcd60e51b815260206004820152601460248201527f53616c653a20756e646566696e65642072617465000000000000000000000000604482015290519081900360640190fd5b60208101516001600160a01b0316611e7d576040805162461bcd60e51b815260206004820152601c60248201527f53616c653a207a65726f206164647265737320726563697069656e7400000000604482015290519081900360640190fd5b60408101516001600160a01b0316611edc576040805162461bcd60e51b815260206004820152601860248201527f53616c653a207a65726f206164647265737320746f6b656e0000000000000000604482015290519081900360640190fd5b6080810151611f32576040805162461bcd60e51b815260206004820152601c60248201527f53616c653a207a65726f207175616e7469747920707572636861736500000000604482015290519081900360640190fd5b606081015160009081526006602052604090208054611f98576040805162461bcd60e51b815260206004820152601660248201527f53616c653a206e6f6e2d6578697374656e7420736b7500000000000000000000604482015290519081900360640190fd5b816080015181600201541015611ff5576040805162461bcd60e51b815260206004820152601860248201527f53616c653a2061626f7665206d6178207175616e746974790000000000000000604482015290519081900360640190fd5b80546000191461205c5781608001518160010154101561205c576040805162461bcd60e51b815260206004820152601960248201527f53616c653a20696e73756666696369656e7420737570706c7900000000000000604482015290519081900360640190fd5b60408201516001600160a01b03166120776004830182612375565b611b45576040805162461bcd60e51b815260206004820152601c60248201527f53616c653a206e6f6e2d6578697374656e7420736b7520746f6b656e00000000604482015290519081900360640190fd5b60608101516000908152600660205260409020805461212e576040805162461bcd60e51b815260206004820152601560248201527f53616c653a20756e737570706f7274656420534b550000000000000000000000604482015290519081900360640190fd5b60048101600061213e8483611b88565b905061214b848383611bf8565b610ce557608084015161215f90829061241d565b60c085015250505050565b60006121768383612375565b6121ac57508154600181810184556000848152602080822090930184905584548482528286019093526040902091909155611abc565b506000611abc565b3b151590565b60035460ff16610d57576040805162461bcd60e51b815260206004820152601460248201527f5061757361626c653a206e6f7420706175736564000000000000000000000000604482015290519081900360640190fd5b60005b82518110156122f757600083828151811061222b57fe5b6020026020010151905060006001600160a01b0316816001600160a01b0316141561229d576040805162461bcd60e51b815260206004820152601860248201527f53616c653a207a65726f206164647265737320746f6b656e0000000000000000604482015290519081900360640190fd5b60008383815181106122ab57fe5b6020026020010151905080600014156122d7576122d1866001600160a01b0384166119e2565b506122ed565b6122eb866001600160a01b03841683612b5d565b505b5050600101612214565b507f0000000000000000000000000000000000000000000000000000000000000000612322846115f7565b1115611b45576040805162461bcd60e51b815260206004820152601560248201527f53616c653a20746f6f206d616e7920746f6b656e730000000000000000000000604482015290519081900360640190fd5b60009081526001919091016020526040902054151590565b6000818152600183016020526040812054806123f0576040805162461bcd60e51b815260206004820152601860248201527f456e756d4d61703a206e6f6e6578697374656e74206b65790000000000000000604482015290519081900360640190fd5b83600001600182038154811061240257fe5b90600052602060002090600202016001015491505092915050565b60008261242c57506000611abc565b8282028284828161243957fe5b0414611cf05760405162461bcd60e51b8152600401808060200182810382526021815260200180612f4e6021913960400191505060405180910390fd5b60008082116124cc576040805162461bcd60e51b815260206004820152601a60248201527f536166654d6174683a206469766973696f6e206279207a65726f000000000000604482015290519081900360640190fd5b8183816124d557fe5b049392505050565b60408101516001600160a01b031673eeeeeeeeeeeeeeeeeeeeeeeeeeeeeeeeeeeeeeee1415612600578060c0015134101561255f576040805162461bcd60e51b815260206004820152601660248201527f53616c653a20696e73756666696369656e742045544800000000000000000000604482015290519081900360640190fd5b60015460c08201516040516001600160a01b039092169181156108fc0291906000818181858888f1935050505015801561259d573d6000803e3d6000fd5b5060006125b78260c0015134612bf490919063ffffffff16565b905080156125fa5781516040516001600160a01b039091169082156108fc029083906000818181858888f193505050501580156125f8573d6000803e3d6000fd5b505b50611987565b61198761260b6115cc565b60015460c084015160408501516001600160a01b0390811693921690612c51565b60608101516000908152600660205260409020805460001914612674576080820151600182015461265c91612bf4565b60608301516000908152600660205260409020600101555b5050565b806060015181604001516001600160a01b031682600001516001600160a01b03167f29f844483ca6b10b5c0611d039afc15ce8f6380e905307b381c3a8ee4e90e11e846020015185608001518660a001518760c001518860e001518961010001518a610120015160405160200180848051906020019060200280838360005b8381101561270f5781810151838201526020016126f7565b50505050905001838051906020019060200280838360005b8381101561273f578181015183820152602001612727565b50505050905001828051906020019060200280838360005b8381101561276f578181015183820152602001612757565b50505050905001935050505060405160208183030381529060405260405180866001600160a01b031681526020018581526020018060200184815260200180602001838103835286818151815260200191508051906020019080838360005b838110156127e65781810151838201526020016127ce565b50505050905090810190601f1680156128135780820380516001836020036101000a031916815260200191505b50838103825284518152845160209182019186019080838360005b8381101561284657818101518382015260200161282e565b50505050905090810190601f1680156128735780820380516001836020036101000a031916815260200191505b5097505050505050505060405180910390a460608101516000908152600660205260409020600301546001600160a01b03168015612674576361eceae860e01b7bffffffffffffffffffffffffffffffffffffffffffffffffffffffff1916816001600160a01b03166361eceae8846000015185602001518660400151876060015188608001518960a001518a60c001518b60e001518c61010001518d61012001516040518b63ffffffff1660e01b8152600401808b6001600160a01b031681526020018a6001600160a01b03168152602001896001600160a01b031681526020018881526020018781526020018060200186815260200180602001806020018060200185810385528a818151815260200191508051906020019080838360005b838110156129ac578181015183820152602001612994565b50505050905090810190601f1680156129d95780820380516001836020036101000a031916815260200191505b508581038452885181528851602091820191808b01910280838360005b83811015612a0e5781810151838201526020016129f6565b50505050905001858103835287818151815260200191508051906020019060200280838360005b83811015612a4d578181015183820152602001612a35565b50505050905001858103825286818151815260200191508051906020019060200280838360005b83811015612a8c578181015183820152602001612a74565b505050509050019e505050505050505050505050505050602060405180830381600087803b158015612abd57600080fd5b505af1158015612ad1573d6000803e3d6000fd5b505050506040513d6020811015612ae757600080fd5b50517fffffffff000000000000000000000000000000000000000000000000000000001614612674576040805162461bcd60e51b815260206004820152601a60248201527f53616c653a206e6f74696669636174696f6e2072656675736564000000000000604482015290519081900360640190fd5b600082815260018401602052604081205480612bc2575050604080518082018252838152602080820184815286546001818101895560008981528481209551600290930290950191825591519082015586548684528188019092529290912055611cf0565b82856000016001830381548110612bd557fe5b9060005260206000209060020201600101819055506000915050611cf0565b600082821115612c4b576040805162461bcd60e51b815260206004820152601e60248201527f536166654d6174683a207375627472616374696f6e206f766572666c6f770000604482015290519081900360640190fd5b50900390565b604080516001600160a01b0380861660248301528416604482015260648082018490528251808303909101815260849091019091526020810180517bffffffffffffffffffffffffffffffffffffffffffffffffffffffff167f23b872dd00000000000000000000000000000000000000000000000000000000179052610ce590859081612ce76001600160a01b0382166121b4565b612d38576040805162461bcd60e51b815260206004820152601a60248201527f4552433230577261707065723a206e6f6e2d636f6e7472616374000000000000604482015290519081900360640190fd5b600080826001600160a01b0316846040518082805190602001908083835b60208310612d9357805182527fffffffffffffffffffffffffffffffffffffffffffffffffffffffffffffffe09092019160209182019101612d56565b6001836020036101000a0380198251168184511680821785525050505050509050019150506000604051808303816000865af19150503d8060008114612df5576040519150601f19603f3d011682016040523d82523d6000602084013e612dfa565b606091505b50915091508115612e7957805115612e7457808060200190516020811015612e2157600080fd5b5051612e74576040805162461bcd60e51b815260206004820152601e60248201527f4552433230577261707065723a206f7065726174696f6e206661696c65640000604482015290519081900360640190fd5b612ed5565b8051612ecc576040805162461bcd60e51b815260206004820152601e60248201527f4552433230577261707065723a206f7065726174696f6e206661696c65640000604482015290519081900360640190fd5b80518082602001fd5b5050505050565b60405180610140016040528060006001600160a01b0316815260200160006001600160a01b0316815260200160006001600160a01b0316815260200160008019168152602001600081526020016060815260200160008152602001606081526020016060815260200160608152509056fe536166654d6174683a206d756c7469706c69636174696f6e206f766572666c6f77a2646970667358221220ea6dc20c95daf65d13dcf713f4e25dde4a3195735b571e427fffce7dedcd6e6364736f6c63430007060033abb92614f53337043b55dc996a83ebb09adce78ec336ca188ea02180b61d1c14",
  "linkReferences": {},
  "deployedLinkReferences": {}
}