{
  "_format": "hh-sol-artifact-1",
  "contractName": "FixedOrderInventorySaleMock",
  "sourceName": "contracts/mocks/sale/FixedOrderInventorySaleMock.sol",
  "abi": [
    {
      "inputs": [
        {
          "internalType": "address",
          "name": "inventory_",
          "type": "address"
        },
        {
          "internalType": "address payable",
          "name": "payoutWallet",
          "type": "address"
        },
        {
          "internalType": "uint256",
          "name": "tokensPerSkuCapacity",
          "type": "uint256"
        }
      ],
      "stateMutability": "nonpayable",
      "type": "constructor"
    },
    {
      "anonymous": false,
      "inputs": [
        {
          "indexed": false,
          "internalType": "bytes32[]",
          "name": "tokens",
          "type": "bytes32[]"
        }
      ],
      "name": "DeliveryData",
      "type": "event"
    },
    {
      "anonymous": false,
      "inputs": [
        {
          "indexed": false,
          "internalType": "bytes32[]",
          "name": "names",
          "type": "bytes32[]"
        },
        {
          "indexed": false,
          "internalType": "bytes32[]",
          "name": "values",
          "type": "bytes32[]"
        }
      ],
      "name": "MagicValues",
      "type": "event"
    },
    {
      "anonymous": false,
      "inputs": [
        {
          "indexed": true,
          "internalType": "address",
          "name": "previousOwner",
          "type": "address"
        },
        {
          "indexed": true,
          "internalType": "address",
          "name": "newOwner",
          "type": "address"
        }
      ],
      "name": "OwnershipTransferred",
      "type": "event"
    },
    {
      "anonymous": false,
      "inputs": [
        {
          "indexed": false,
          "internalType": "address",
          "name": "account",
          "type": "address"
        }
      ],
      "name": "Paused",
      "type": "event"
    },
    {
      "anonymous": false,
      "inputs": [
        {
          "indexed": false,
          "internalType": "address",
          "name": "payoutWallet_",
          "type": "address"
        }
      ],
      "name": "PayoutWalletSet",
      "type": "event"
    },
    {
      "anonymous": false,
      "inputs": [
        {
          "indexed": true,
          "internalType": "address",
          "name": "purchaser",
          "type": "address"
        },
        {
          "indexed": false,
          "internalType": "address",
          "name": "recipient",
          "type": "address"
        },
        {
          "indexed": true,
          "internalType": "address",
          "name": "token",
          "type": "address"
        },
        {
          "indexed": true,
          "internalType": "bytes32",
          "name": "sku",
          "type": "bytes32"
        },
        {
          "indexed": false,
          "internalType": "uint256",
          "name": "quantity",
          "type": "uint256"
        },
        {
          "indexed": false,
          "internalType": "bytes",
          "name": "userData",
          "type": "bytes"
        },
        {
          "indexed": false,
          "internalType": "uint256",
          "name": "totalPrice",
          "type": "uint256"
        },
        {
          "indexed": false,
          "internalType": "bytes",
          "name": "extData",
          "type": "bytes"
        }
      ],
      "name": "Purchase",
      "type": "event"
    },
    {
      "anonymous": false,
      "inputs": [
        {
          "indexed": false,
          "internalType": "bytes32",
          "name": "sku",
          "type": "bytes32"
        },
        {
          "indexed": false,
          "internalType": "uint256",
          "name": "totalSupply",
          "type": "uint256"
        },
        {
          "indexed": false,
          "internalType": "uint256",
          "name": "maxQuantityPerPurchase",
          "type": "uint256"
        },
        {
          "indexed": false,
          "internalType": "address",
          "name": "notificationsReceiver",
          "type": "address"
        }
      ],
      "name": "SkuCreation",
      "type": "event"
    },
    {
      "anonymous": false,
      "inputs": [
        {
          "indexed": true,
          "internalType": "bytes32",
          "name": "sku",
          "type": "bytes32"
        },
        {
          "indexed": false,
          "internalType": "address[]",
          "name": "tokens",
          "type": "address[]"
        },
        {
          "indexed": false,
          "internalType": "uint256[]",
          "name": "prices",
          "type": "uint256[]"
        }
      ],
      "name": "SkuPricingUpdate",
      "type": "event"
    },
    {
      "anonymous": false,
      "inputs": [
        {
          "indexed": false,
          "internalType": "address",
          "name": "account",
          "type": "address"
        }
      ],
      "name": "Started",
      "type": "event"
    },
    {
      "anonymous": false,
      "inputs": [
        {
          "indexed": false,
          "internalType": "address",
          "name": "account",
          "type": "address"
        }
      ],
      "name": "Unpaused",
      "type": "event"
    },
    {
      "inputs": [],
      "name": "SUPPLY_UNLIMITED",
      "outputs": [
        {
          "internalType": "uint256",
          "name": "",
          "type": "uint256"
        }
      ],
      "stateMutability": "view",
      "type": "function"
    },
    {
      "inputs": [],
      "name": "TOKEN_ETH",
      "outputs": [
        {
          "internalType": "address",
          "name": "",
          "type": "address"
        }
      ],
      "stateMutability": "view",
      "type": "function"
    },
    {
      "inputs": [
        {
          "internalType": "uint256[]",
          "name": "tokens",
          "type": "uint256[]"
        }
      ],
      "name": "addSupply",
      "outputs": [],
      "stateMutability": "nonpayable",
      "type": "function"
    },
    {
      "inputs": [
        {
          "internalType": "bytes32",
          "name": "sku",
          "type": "bytes32"
        },
        {
          "internalType": "uint256",
          "name": "maxQuantityPerPurchase",
          "type": "uint256"
        },
        {
          "internalType": "address",
          "name": "notificationsReceiver",
          "type": "address"
        }
      ],
      "name": "createSku",
      "outputs": [],
      "stateMutability": "nonpayable",
      "type": "function"
    },
    {
      "inputs": [
        {
          "internalType": "address payable",
          "name": "recipient",
          "type": "address"
        },
        {
          "internalType": "address",
          "name": "token",
          "type": "address"
        },
        {
          "internalType": "bytes32",
          "name": "sku",
          "type": "bytes32"
        },
        {
          "internalType": "uint256",
          "name": "quantity",
          "type": "uint256"
        },
        {
          "internalType": "bytes",
          "name": "userData",
          "type": "bytes"
        }
      ],
      "name": "estimatePurchase",
      "outputs": [
        {
          "internalType": "uint256",
          "name": "totalPrice",
          "type": "uint256"
        },
        {
          "internalType": "bytes32[]",
          "name": "pricingData",
          "type": "bytes32[]"
        }
      ],
      "stateMutability": "view",
      "type": "function"
    },
    {
      "inputs": [],
      "name": "getSkuCapacity",
      "outputs": [
        {
          "internalType": "uint256",
          "name": "",
          "type": "uint256"
        }
      ],
      "stateMutability": "view",
      "type": "function"
    },
    {
      "inputs": [
        {
          "internalType": "bytes32",
          "name": "sku",
          "type": "bytes32"
        }
      ],
      "name": "getSkuInfo",
      "outputs": [
        {
          "internalType": "uint256",
          "name": "totalSupply",
          "type": "uint256"
        },
        {
          "internalType": "uint256",
          "name": "remainingSupply",
          "type": "uint256"
        },
        {
          "internalType": "uint256",
          "name": "maxQuantityPerPurchase",
          "type": "uint256"
        },
        {
          "internalType": "address",
          "name": "notificationsReceiver",
          "type": "address"
        },
        {
          "internalType": "address[]",
          "name": "tokens",
          "type": "address[]"
        },
        {
          "internalType": "uint256[]",
          "name": "prices",
          "type": "uint256[]"
        }
      ],
      "stateMutability": "view",
      "type": "function"
    },
    {
      "inputs": [],
      "name": "getSkus",
      "outputs": [
        {
          "internalType": "bytes32[]",
          "name": "skus",
          "type": "bytes32[]"
        }
      ],
      "stateMutability": "view",
      "type": "function"
    },
    {
      "inputs": [],
      "name": "getTokenList",
      "outputs": [
        {
          "internalType": "uint256[]",
          "name": "",
          "type": "uint256[]"
        }
      ],
      "stateMutability": "view",
      "type": "function"
    },
    {
      "inputs": [],
      "name": "getTokensPerSkuCapacity",
      "outputs": [
        {
          "internalType": "uint256",
          "name": "",
          "type": "uint256"
        }
      ],
      "stateMutability": "view",
      "type": "function"
    },
    {
      "inputs": [],
      "name": "getTotalSupply",
      "outputs": [
        {
          "internalType": "uint256",
          "name": "",
          "type": "uint256"
        }
      ],
      "stateMutability": "view",
      "type": "function"
    },
    {
      "inputs": [],
      "name": "inventory",
      "outputs": [
        {
          "internalType": "address",
          "name": "",
          "type": "address"
        }
      ],
      "stateMutability": "view",
      "type": "function"
    },
    {
      "inputs": [],
      "name": "owner",
      "outputs": [
        {
          "internalType": "address",
          "name": "",
          "type": "address"
        }
      ],
      "stateMutability": "view",
      "type": "function"
    },
    {
      "inputs": [],
      "name": "pause",
      "outputs": [],
      "stateMutability": "nonpayable",
      "type": "function"
    },
    {
      "inputs": [],
      "name": "paused",
      "outputs": [
        {
          "internalType": "bool",
          "name": "",
          "type": "bool"
        }
      ],
      "stateMutability": "view",
      "type": "function"
    },
    {
      "inputs": [],
      "name": "payoutWallet",
      "outputs": [
        {
          "internalType": "address payable",
          "name": "",
          "type": "address"
        }
      ],
      "stateMutability": "view",
      "type": "function"
    },
    {
      "inputs": [
        {
          "internalType": "address payable",
          "name": "recipient",
          "type": "address"
        },
        {
          "internalType": "address",
          "name": "token",
          "type": "address"
        },
        {
          "internalType": "bytes32",
          "name": "sku",
          "type": "bytes32"
        },
        {
          "internalType": "uint256",
          "name": "quantity",
          "type": "uint256"
        },
        {
          "internalType": "bytes",
          "name": "userData",
          "type": "bytes"
        }
      ],
      "name": "purchaseFor",
      "outputs": [],
      "stateMutability": "payable",
      "type": "function"
    },
    {
      "inputs": [
        {
          "internalType": "address payable",
          "name": "payoutWallet_",
          "type": "address"
        }
      ],
      "name": "setPayoutWallet",
      "outputs": [],
      "stateMutability": "nonpayable",
      "type": "function"
    },
    {
      "inputs": [
        {
          "internalType": "uint256[]",
          "name": "indexes",
          "type": "uint256[]"
        },
        {
          "internalType": "uint256[]",
          "name": "tokens",
          "type": "uint256[]"
        }
      ],
      "name": "setSupply",
      "outputs": [],
      "stateMutability": "nonpayable",
      "type": "function"
    },
    {
      "inputs": [],
      "name": "start",
      "outputs": [],
      "stateMutability": "nonpayable",
      "type": "function"
    },
    {
      "inputs": [],
      "name": "startedAt",
      "outputs": [
        {
          "internalType": "uint256",
          "name": "",
          "type": "uint256"
        }
      ],
      "stateMutability": "view",
      "type": "function"
    },
    {
      "inputs": [],
      "name": "tokenIndex",
      "outputs": [
        {
          "internalType": "uint256",
          "name": "",
          "type": "uint256"
        }
      ],
      "stateMutability": "view",
      "type": "function"
    },
    {
      "inputs": [
        {
          "internalType": "uint256",
          "name": "",
          "type": "uint256"
        }
      ],
      "name": "tokenList",
      "outputs": [
        {
          "internalType": "uint256",
          "name": "",
          "type": "uint256"
        }
      ],
      "stateMutability": "view",
      "type": "function"
    },
    {
      "inputs": [
        {
          "internalType": "address",
          "name": "newOwner",
          "type": "address"
        }
      ],
      "name": "transferOwnership",
      "outputs": [],
      "stateMutability": "nonpayable",
      "type": "function"
    },
    {
      "inputs": [
        {
          "internalType": "address payable",
          "name": "recipient",
          "type": "address"
        },
        {
          "internalType": "address",
          "name": "token",
          "type": "address"
        },
        {
          "internalType": "bytes32",
          "name": "sku",
          "type": "bytes32"
        },
        {
          "internalType": "uint256",
          "name": "quantity",
          "type": "uint256"
        },
        {
          "internalType": "bytes",
          "name": "userData",
          "type": "bytes"
        },
        {
          "internalType": "uint256",
          "name": "totalPrice",
          "type": "uint256"
        },
        {
          "internalType": "bytes32[]",
          "name": "pricingData",
          "type": "bytes32[]"
        },
        {
          "internalType": "bytes32[]",
          "name": "paymentData",
          "type": "bytes32[]"
        }
      ],
      "name": "underscoreDelivery",
      "outputs": [],
      "stateMutability": "nonpayable",
      "type": "function"
    },
    {
      "inputs": [],
      "name": "unpause",
      "outputs": [],
      "stateMutability": "nonpayable",
      "type": "function"
    },
    {
      "inputs": [
        {
          "internalType": "bytes32",
          "name": "sku",
          "type": "bytes32"
        },
        {
          "internalType": "address[]",
          "name": "tokens",
          "type": "address[]"
        },
        {
          "internalType": "uint256[]",
          "name": "prices",
          "type": "uint256[]"
        }
      ],
      "name": "updateSkuPricing",
      "outputs": [],
      "stateMutability": "nonpayable",
      "type": "function"
    }
  ],
  "bytecode": "0x60e06040523480156200001157600080fd5b506040516200367938038062003679833981810160405260608110156200003757600080fd5b5080516020820151604092830151600080546001600160a01b031916339081178255945193949293919285928592859284926001928592859285928592849290918691839182917f8be0079c531659141344cd1fd0a4f28419497f9722a3daafe3b4186f6b6457e0908290a3506001600160a01b03811662000100576040805162461bcd60e51b815260206004820152601460248201527f5061796f75743a207a65726f2061646472657373000000000000000000000000604482015290519081900360640190fd5b600180546001600160a01b0383166001600160a01b0319909116811790915560408051918252517fdd880d24a789958a6398c99c2e54ce31bc10a638cbc42f7dd34285479ae0f8559181900360200190a150506003805460ff1916911515919091179055608082905260a081905260408051600280825260608201835260009260208301908036833750506040805160028082526060820183529394506000939092509060208301908036833750508351919250680a89e968a9cbe8aa8960bb1b9173eeeeeeeeeeeeeeeeeeeeeeeeeeeeeeeeeeeeeeee91508490600090620001e557fe5b6020026020010183600081518110620001fa57fe5b602002602001018281525082815250505060001960001b6f14d55414131657d5539312535255115160821b90836001815181106200023457fe5b60200260200101836001815181106200024957fe5b60200260200101828152508281525050507fabb92614f53337043b55dc996a83ebb09adce78ec336ca188ea02180b61d1c148282604051808060200180602001838103835285818151815260200191508051906020019060200280838360005b83811015620002c3578181015183820152602001620002a9565b50505050905001838103825284818151815260200191508051906020019060200280838360005b8381101562000304578181015183820152602001620002ea565b5050505090500194505050505060405180910390a150505050506001600160a01b0386161515925062000381915050576040805162461bcd60e51b815260206004820152601c60248201527f53616c653a207a65726f206164647265737320696e76656e746f727900000000604482015290519081900360640190fd5b50506001600160601b031960609190911b1660c05250505060805160a05160c05160601c6132a6620003d360003980610db85250806112e65280611eb15250806112595280611fbe52506132a66000f3fe6080604052600436106101ac5760003560e01c80636b8f9c43116100ec578063a963b2571161008a578063cf3ae77b11610064578063cf3ae77b14610a3b578063d55f927314610aeb578063f21f537d14610b00578063f2fde38b14610b15576101ac565b8063a963b2571461097c578063be9a655514610a11578063c4e41b2214610a26576101ac565b806385b3cfac116100c657806385b3cfac146108e95780638da5cb5b146109285780639e0495451461093d5780639ead722214610952576101ac565b80636b8f9c431461088c5780638456cb59146108bf5780638488bb4e146108d4576101ac565b80633628bd93116101595780635c4fafc7116101335780635c4fafc7146106fe5780635c975abb146107135780635e6e9f701461073c57806361bd385114610877576101ac565b80633628bd93146106ad5780633f4ba83a146106d4578063451b31a2146106e9576101ac565b806323f927c91161018a57806323f927c91461042c578063273cbaa0146105605780632a8a45bc146105c5576101ac565b80631323b066146101b157806315469171146102ae57806315d52a5c146103fb575b600080fd5b3480156101bd57600080fd5b50610253600480360360a08110156101d457600080fd5b6001600160a01b03823581169260208101359091169160408201359160608101359181019060a08101608082013564010000000081111561021457600080fd5b82018360208201111561022657600080fd5b8035906020019184600183028401116401000000008311171561024857600080fd5b509092509050610b48565b6040518083815260200180602001828103825283818151815260200191508051906020019060200280838360005b83811015610299578181015183820152602001610281565b50505050905001935050505060405180910390f35b3480156102ba57600080fd5b506103f960048036036101008110156102d257600080fd5b6001600160a01b03823581169260208101359091169160408201359160608101359181019060a08101608082013564010000000081111561031257600080fd5b82018360208201111561032457600080fd5b8035906020019184600183028401116401000000008311171561034657600080fd5b9193909282359260408101906020013564010000000081111561036857600080fd5b82018360208201111561037a57600080fd5b8035906020019184602083028401116401000000008311171561039c57600080fd5b9193909290916020810190356401000000008111156103ba57600080fd5b8201836020820111156103cc57600080fd5b803590602001918460208302840111640100000000831117156103ee57600080fd5b509092509050610c3d565b005b34801561040757600080fd5b50610410610db6565b604080516001600160a01b039092168252519081900360200190f35b34801561043857600080fd5b506103f96004803603604081101561044f57600080fd5b81019060208101813564010000000081111561046a57600080fd5b82018360208201111561047c57600080fd5b8035906020019184602083028401116401000000008311171561049e57600080fd5b91908080602002602001604051908101604052809392919081815260200183836020028082843760009201919091525092959493602081019350359150506401000000008111156104ee57600080fd5b82018360208201111561050057600080fd5b8035906020019184602083028401116401000000008311171561052257600080fd5b919080806020026020016040519081016040528093929190818152602001838360200280828437600092019190915250929550610dda945050505050565b34801561056c57600080fd5b5061057561105a565b60408051602080825283518183015283519192839290830191858101910280838360005b838110156105b1578181015183820152602001610599565b505050509050019250505060405180910390f35b3480156105d157600080fd5b506105ef600480360360208110156105e857600080fd5b50356110b2565b60405180878152602001868152602001858152602001846001600160a01b031681526020018060200180602001838103835285818151815260200191508051906020019060200280838360005b8381101561065457818101518382015260200161063c565b50505050905001838103825284818151815260200191508051906020019060200280838360005b8381101561069357818101518382015260200161067b565b505050509050019850505050505050505060405180910390f35b3480156106b957600080fd5b506106c2611257565b60408051918252519081900360200190f35b3480156106e057600080fd5b506103f961127b565b3480156106f557600080fd5b506106c26112e4565b34801561070a57600080fd5b50610410611308565b34801561071f57600080fd5b50610728611320565b604080519115158252519081900360200190f35b34801561074857600080fd5b506103f96004803603606081101561075f57600080fd5b8135919081019060408101602082013564010000000081111561078157600080fd5b82018360208201111561079357600080fd5b803590602001918460208302840111640100000000831117156107b557600080fd5b919080806020026020016040519081016040528093929190818152602001838360200280828437600092019190915250929594936020810193503591505064010000000081111561080557600080fd5b82018360208201111561081757600080fd5b8035906020019184602083028401116401000000008311171561083957600080fd5b919080806020026020016040519081016040528093929190818152602001838360200280828437600092019190915250929550611329945050505050565b34801561088357600080fd5b50610575611506565b34801561089857600080fd5b506103f9600480360360208110156108af57600080fd5b50356001600160a01b031661155f565b3480156108cb57600080fd5b506103f961162c565b3480156108e057600080fd5b50610410611693565b3480156108f557600080fd5b506103f96004803603606081101561090c57600080fd5b50803590602081013590604001356001600160a01b03166116a2565b34801561093457600080fd5b506104106116b7565b34801561094957600080fd5b506106c26116c6565b34801561095e57600080fd5b506106c26004803603602081101561097557600080fd5b50356116cc565b6103f9600480360360a081101561099257600080fd5b6001600160a01b03823581169260208101359091169160408201359160608101359181019060a0810160808201356401000000008111156109d257600080fd5b8201836020820111156109e457600080fd5b80359060200191846001830284011164010000000083111715610a0657600080fd5b5090925090506116ed565b348015610a1d57600080fd5b506103f96117ca565b348015610a3257600080fd5b506106c26117dd565b348015610a4757600080fd5b506103f960048036036020811015610a5e57600080fd5b810190602081018135640100000000811115610a7957600080fd5b820183602082011115610a8b57600080fd5b80359060200191846020830284011164010000000083111715610aad57600080fd5b9190808060200260200160405190810160405280939291908181526020018383602002808284376000920191909152509295506117e3945050505050565b348015610af757600080fd5b506106c2611937565b348015610b0c57600080fd5b506106c261193d565b348015610b2157600080fd5b506103f960048036036020811015610b3857600080fd5b50356001600160a01b0316611943565b6000606060025460001415610ba4576040805162461bcd60e51b815260206004820152601660248201527f537461727461626c653a206e6f74207374617274656400000000000000000000604482015290519081900360640190fd5b610bac6119a9565b610bb46131de565b610bbc611a01565b6001600160a01b03908116825289811660208084019190915290891660408084019190915260608301899052608083018890528051601f870183900483028101830190915285815290869086908190840183828082843760009201919091525050505060a0820152610c2d81611a05565b9250925050965096945050505050565b610c456131de565b610c4d611a01565b6001600160a01b0390811682528c8116602080840191909152908c16604080840191909152606083018c9052608083018b90528051601f8a0183900483028101830190915288815290899089908190840183828082843760009201919091525050505060a082015260c081018690526040805160208087028281018201909352868252909187918791829185019084908082843760009201919091525050505060e082015260408051602080850282810182019093528482529091859185918291850190849080828437600092019190915250505050610100820152610d3281611a2c565b61012081015160408051602080825283518183015283517ff94e453c69afa2e43777ec90f3a26bcfc9ac74969e1c25a72b056b9f81c93b339493839290830191818601910280838360005b83811015610d95578181015183820152602001610d7d565b505050509050019250505060405180910390a1505050505050505050505050565b7f000000000000000000000000000000000000000000000000000000000000000081565b610de2611add565b610df2610ded611a01565b611b34565b60085480610e47576040805162461bcd60e51b815260206004820152601260248201527f53616c653a20656d70747920746f6b656e730000000000000000000000000000604482015290519081900360640190fd5b825180610e9b576040805162461bcd60e51b815260206004820152601360248201527f53616c653a20656d70747920696e646578657300000000000000000000000000604482015290519081900360640190fd5b8251818114610ef1576040805162461bcd60e51b815260206004820152601960248201527f53616c653a20696e636f6e73697374656e742061727261797300000000000000604482015290519081900360640190fd5b60075460005b838114611051576000878281518110610f0c57fe5b6020026020010151905082811015610f6b576040805162461bcd60e51b815260206004820152601360248201527f53616c653a20696e76616c696420696e64657800000000000000000000000000604482015290519081900360640190fd5b858110610fbf576040805162461bcd60e51b815260206004820152601960248201527f53616c653a20696e646578206f75742d6f662d626f756e647300000000000000604482015290519081900360640190fd5b6000878381518110610fcd57fe5b60200260200101519050806000141561102d576040805162461bcd60e51b815260206004820152601160248201527f53616c653a207a65726f20737570706c79000000000000000000000000000000604482015290519081900360640190fd5b806008838154811061103b57fe5b6000918252602090912001555050600101610ef7565b50505050505050565b606060088054806020026020016040519081016040528092919081815260200182805480156110a857602002820191906000526020600020905b815481526020019060010190808311611094575b5050505050905090565b60008181526006602052604081208190819081906060908190836110d860048301611bfb565b82549850905087611130576040805162461bcd60e51b815260206004820152601660248201527f53616c653a206e6f6e2d6578697374656e7420736b7500000000000000000000604482015290519081900360640190fd5b60018201546002830154600384015491985096506001600160a01b031694508067ffffffffffffffff8111801561116657600080fd5b50604051908082528060200260200182016040528015611190578160200160208202803683370190505b5093508067ffffffffffffffff811180156111aa57600080fd5b506040519080825280602002602001820160405280156111d4578160200160208202803683370190505b50925060005b8181101561124b576000806111f26004860184611bff565b915091508160001c87848151811061120657fe5b60200260200101906001600160a01b031690816001600160a01b0316815250508060001c86848151811061123657fe5b602090810291909101015250506001016111da565b50505091939550919395565b7f000000000000000000000000000000000000000000000000000000000000000090565b6002546112cf576040805162461bcd60e51b815260206004820152601660248201527f537461727461626c653a206e6f74207374617274656400000000000000000000604482015290519081900360640190fd5b6112da610ded611a01565b6112e2611c90565b565b7f000000000000000000000000000000000000000000000000000000000000000090565b73eeeeeeeeeeeeeeeeeeeeeeeeeeeeeeeeeeeeeeee81565b60035460ff1681565b611334610ded611a01565b81518151811461138b576040805162461bcd60e51b815260206004820152601960248201527f53616c653a20696e636f6e73697374656e742061727261797300000000000000604482015290519081900360640190fd5b600084815260066020526040902080546113ec576040805162461bcd60e51b815260206004820152601660248201527f53616c653a206e6f6e2d6578697374656e7420736b7500000000000000000000604482015290519081900360640190fd5b600481018261143757600061140082611bfb565b905060005b818110156114305760006114198482611bff565b5090506114268482611ce8565b5050600101611405565b5050611442565b611442818686611dc8565b857fcb3fe5489e0cd43d0f4a33d1e09a4a0463a03d0d38f56165530854e5540db1438686604051808060200180602001838103835285818151815260200191508051906020019060200280838360005b838110156114aa578181015183820152602001611492565b50505050905001838103825284818151815260200191508051906020019060200280838360005b838110156114e95781810151838201526020016114d1565b5050505090500194505050505060405180910390a2505050505050565b606060046000018054806020026020016040519081016040528092919081815260200182805480156110a85760200282019190600052602060002090815481526020019060010190808311611094575050505050905090565b61156a610ded611a01565b6001600160a01b0381166115c5576040805162461bcd60e51b815260206004820152601460248201527f5061796f75743a207a65726f2061646472657373000000000000000000000000604482015290519081900360640190fd5b6001805473ffffffffffffffffffffffffffffffffffffffff19166001600160a01b03838116919091179182905560408051929091168252517fdd880d24a789958a6398c99c2e54ce31bc10a638cbc42f7dd34285479ae0f855916020908290030190a150565b600254611680576040805162461bcd60e51b815260206004820152601660248201527f537461727461626c653a206e6f74207374617274656400000000000000000000604482015290519081900360640190fd5b61168b610ded611a01565b6112e2611f2c565b6001546001600160a01b031681565b6008546116b29084908484611f6a565b505050565b6000546001600160a01b031690565b60001981565b600881815481106116dc57600080fd5b600091825260209091200154905081565b600254611741576040805162461bcd60e51b815260206004820152601660248201527f537461727461626c653a206e6f74207374617274656400000000000000000000604482015290519081900360640190fd5b6117496119a9565b6117516131de565b611759611a01565b6001600160a01b03908116825287811660208084019190915290871660408084019190915260608301879052608083018690528051601f850183900483028101830190915283815290849084908190840183828082843760009201919091525050505060a0820152611051816121a1565b6117d5610ded611a01565b6112da6121ce565b60085490565b6117ee610ded611a01565b805180611842576040805162461bcd60e51b815260206004820152601260248201527f53616c653a20656d70747920746f6b656e730000000000000000000000000000604482015290519081900360640190fd5b60005b8181146118f757600083828151811061185a57fe5b6020026020010151905080600014156118ba576040805162461bcd60e51b815260206004820152601160248201527f53616c653a207a65726f20737570706c79000000000000000000000000000000604482015290519081900360640190fd5b60088054600181810183556000929092527ff3f7a9fe364faab93b216da50a3214154f22a0a2b415b23a84c8169e8b636ee3019190915501611845565b506119026004611bfb565b15611933576000611914600482612250565b6000908152600660205260409020805483018155600101805483019055505b5050565b60075481565b60025490565b61194e610ded611a01565b6000805473ffffffffffffffffffffffffffffffffffffffff19166001600160a01b0383811691821780845560405192939116917f8be0079c531659141344cd1fd0a4f28419497f9722a3daafe3b4186f6b6457e09190a350565b60035460ff16156112e2576040805162461bcd60e51b815260206004820152601060248201527f5061757361626c653a2070617573656400000000000000000000000000000000604482015290519081900360640190fd5b3390565b60006060611a12836122ca565b611a1b83612574565b505060c081015160e0909101519091565b611a3581612611565b806080015167ffffffffffffffff81118015611a5057600080fd5b50604051908082528060200260200182016040528015611a7a578160200160208202803683370190505b506101208201526007546000905b82608001518214611ad65760088181548110611aa057fe5b906000526020600020015460001b8361012001518381518110611abf57fe5b602090810291909101015260019182019101611a88565b6007555050565b60035460ff166112e2576040805162461bcd60e51b815260206004820152601460248201527f5061757361626c653a206e6f7420706175736564000000000000000000000000604482015290519081900360640190fd5b306001600160a01b0316638da5cb5b6040518163ffffffff1660e01b815260040160206040518083038186803b158015611b6d57600080fd5b505afa158015611b81573d6000803e3d6000fd5b505050506040513d6020811015611b9757600080fd5b50516001600160a01b03828116911614611bf8576040805162461bcd60e51b815260206004820152601660248201527f4f776e61626c653a206e6f7420746865206f776e657200000000000000000000604482015290519081900360640190fd5b50565b5490565b815460009081908310611c59576040805162461bcd60e51b815260206004820152601c60248201527f456e756d4d61703a20696e646578206f7574206f6620626f756e647300000000604482015290519081900360640190fd5b6000846000018481548110611c6a57fe5b906000526020600020906002020190508060000154816001015492509250509250929050565b611c98611add565b6003805460ff191690557f5db9ee0a495bf2e6ff9c91a7834c1ba4fdd244a5e8aa4e537bd38aeae4b073aa611ccb611a01565b604080516001600160a01b039092168252519081900360200190a1565b60008181526001830160205260408120548015611dbc5783546000198083019190810190600090879083908110611d1b57fe5b9060005260206000209060020201905080876000018481548110611d3b57fe5b600091825260208083208454600290930201918255600193840154918401919091558354825289830190526040902090840190558654879080611d7a57fe5b6000828152602080822060026000199094019384020182815560019081018390559290935588815289820190925260408220919091559450611dc29350505050565b60009150505b92915050565b60005b8251811015611eae576000838281518110611de257fe5b6020026020010151905060006001600160a01b0316816001600160a01b03161415611e54576040805162461bcd60e51b815260206004820152601860248201527f53616c653a207a65726f206164647265737320746f6b656e0000000000000000604482015290519081900360640190fd5b6000838381518110611e6257fe5b602002602001015190508060001415611e8e57611e88866001600160a01b038416611ce8565b50611ea4565b611ea2866001600160a01b0384168361265c565b505b5050600101611dcb565b507f0000000000000000000000000000000000000000000000000000000000000000611ed984611bfb565b11156116b2576040805162461bcd60e51b815260206004820152601560248201527f53616c653a20746f6f206d616e7920746f6b656e730000000000000000000000604482015290519081900360640190fd5b611f346119a9565b6003805460ff191660011790557f62e78cea01bee320cd4e420270b5ea74000d11b0c9f74754ebdbfc544b05a258611ccb611a01565b82611fbc576040805162461bcd60e51b815260206004820152601160248201527f53616c653a207a65726f20737570706c79000000000000000000000000000000604482015290519081900360640190fd5b7f0000000000000000000000000000000000000000000000000000000000000000611fe76004611bfb565b10612039576040805162461bcd60e51b815260206004820152601360248201527f53616c653a20746f6f206d616e7920736b757300000000000000000000000000604482015290519081900360640190fd5b6120446004856126f6565b612095576040805162461bcd60e51b815260206004820152601960248201527f53616c653a20736b7520616c7265616479206372656174656400000000000000604482015290519081900360640190fd5b6001600160a01b03811615612107576120b6816001600160a01b0316612740565b612107576040805162461bcd60e51b815260206004820152601b60248201527f53616c653a206e6f6e2d636f6e74726163742072656365697665720000000000604482015290519081900360640190fd5b60008481526006602090815260409182902085815560018101869055600281018590556003810180546001600160a01b03861673ffffffffffffffffffffffffffffffffffffffff1990911681179091558351888152928301879052828401869052606083015291517f38bd4aabce684540cd61351b91f2f5facf9d6963934347e25aab93d87ae7ac149181900360800190a15050505050565b6121aa816122ca565b6121b381612574565b6121bc81612746565b6121c581611a2c565b611bf881612895565b60025415612223576040805162461bcd60e51b815260206004820152601260248201527f537461727461626c653a20737461727465640000000000000000000000000000604482015290519081900360640190fd5b426002557f27029695aa5f602a4ee81f4c32dfa86e562f200a17966496f3a7c3f2ec0f9417611ccb611a01565b815460009082106122a8576040805162461bcd60e51b815260206004820152601c60248201527f456e756d5365743a20696e646578206f7574206f6620626f756e647300000000604482015290519081900360640190fd5b8260000182815481106122b757fe5b9060005260206000200154905092915050565b60208101516001600160a01b0316612329576040805162461bcd60e51b815260206004820152601c60248201527f53616c653a207a65726f206164647265737320726563697069656e7400000000604482015290519081900360640190fd5b60408101516001600160a01b0316612388576040805162461bcd60e51b815260206004820152601860248201527f53616c653a207a65726f206164647265737320746f6b656e0000000000000000604482015290519081900360640190fd5b60808101516123de576040805162461bcd60e51b815260206004820152601c60248201527f53616c653a207a65726f207175616e7469747920707572636861736500000000604482015290519081900360640190fd5b606081015160009081526006602052604090208054612444576040805162461bcd60e51b815260206004820152601660248201527f53616c653a206e6f6e2d6578697374656e7420736b7500000000000000000000604482015290519081900360640190fd5b8160800151816002015410156124a1576040805162461bcd60e51b815260206004820152601860248201527f53616c653a2061626f7665206d6178207175616e746974790000000000000000604482015290519081900360640190fd5b80546000191461250857816080015181600101541015612508576040805162461bcd60e51b815260206004820152601960248201527f53616c653a20696e73756666696369656e7420737570706c7900000000000000604482015290519081900360640190fd5b60408201516001600160a01b03166125236004830182612d7a565b6116b2576040805162461bcd60e51b815260206004820152601c60248201527f53616c653a206e6f6e2d6578697374656e7420736b7520746f6b656e00000000604482015290519081900360640190fd5b6060810151600090815260066020526040902080546125da576040805162461bcd60e51b815260206004820152601560248201527f53616c653a20756e737570706f7274656420534b550000000000000000000000604482015290519081900360640190fd5b6004810160006125ea8483612d92565b9050612603846080015182612e0290919063ffffffff16565b60c090940193909352505050565b60608101516000908152600660205260409020805460001914611933576080820151600182015461264191612e5b565b60608301516000908152600660205260409020600101555050565b6000828152600184016020526040812054806126c15750506040805180820182528381526020808201848152865460018181018955600089815284812095516002909302909501918255915190820155865486845281880190925292909120556126ef565b828560000160018303815481106126d457fe5b90600052602060002090600202016001018190555060009150505b9392505050565b60006127028383612d7a565b61273857508154600181810184556000848152602080822090930184905584548482528286019093526040902091909155611dc2565b506000611dc2565b3b151590565b60408101516001600160a01b031673eeeeeeeeeeeeeeeeeeeeeeeeeeeeeeeeeeeeeeee1415612869578060c001513410156127c8576040805162461bcd60e51b815260206004820152601660248201527f53616c653a20696e73756666696369656e742045544800000000000000000000604482015290519081900360640190fd5b60015460c08201516040516001600160a01b039092169181156108fc0291906000818181858888f19350505050158015612806573d6000803e3d6000fd5b5060006128208260c0015134612e5b90919063ffffffff16565b905080156128635781516040516001600160a01b039091169082156108fc029083906000818181858888f19350505050158015612861573d6000803e3d6000fd5b505b50611bf8565b611bf8612874611a01565b60015460c084015160408501516001600160a01b0390811693921690612eb8565b806060015181604001516001600160a01b031682600001516001600160a01b03167f29f844483ca6b10b5c0611d039afc15ce8f6380e905307b381c3a8ee4e90e11e846020015185608001518660a001518760c001518860e001518961010001518a610120015160405160200180848051906020019060200280838360005b8381101561292c578181015183820152602001612914565b50505050905001838051906020019060200280838360005b8381101561295c578181015183820152602001612944565b50505050905001828051906020019060200280838360005b8381101561298c578181015183820152602001612974565b50505050905001935050505060405160208183030381529060405260405180866001600160a01b031681526020018581526020018060200184815260200180602001838103835286818151815260200191508051906020019080838360005b83811015612a035781810151838201526020016129eb565b50505050905090810190601f168015612a305780820380516001836020036101000a031916815260200191505b50838103825284518152845160209182019186019080838360005b83811015612a63578181015183820152602001612a4b565b50505050905090810190601f168015612a905780820380516001836020036101000a031916815260200191505b5097505050505050505060405180910390a460608101516000908152600660205260409020600301546001600160a01b03168015611933576361eceae860e01b7bffffffffffffffffffffffffffffffffffffffffffffffffffffffff1916816001600160a01b03166361eceae8846000015185602001518660400151876060015188608001518960a001518a60c001518b60e001518c61010001518d61012001516040518b63ffffffff1660e01b8152600401808b6001600160a01b031681526020018a6001600160a01b03168152602001896001600160a01b031681526020018881526020018781526020018060200186815260200180602001806020018060200185810385528a818151815260200191508051906020019080838360005b83811015612bc9578181015183820152602001612bb1565b50505050905090810190601f168015612bf65780820380516001836020036101000a031916815260200191505b508581038452885181528851602091820191808b01910280838360005b83811015612c2b578181015183820152602001612c13565b50505050905001858103835287818151815260200191508051906020019060200280838360005b83811015612c6a578181015183820152602001612c52565b50505050905001858103825286818151815260200191508051906020019060200280838360005b83811015612ca9578181015183820152602001612c91565b505050509050019e505050505050505050505050505050602060405180830381600087803b158015612cda57600080fd5b505af1158015612cee573d6000803e3d6000fd5b505050506040513d6020811015612d0457600080fd5b50517fffffffff000000000000000000000000000000000000000000000000000000001614611933576040805162461bcd60e51b815260206004820152601a60248201527f53616c653a206e6f74696669636174696f6e2072656675736564000000000000604482015290519081900360640190fd5b60009081526001919091016020526040902054151590565b6040820151600090612dae9083906001600160a01b0316612f46565b905080611dc2576040805162461bcd60e51b815260206004820152601f60248201527f53616c653a20756e737570706f72746564207061796d656e7420746f6b656e00604482015290519081900360640190fd5b600082612e1157506000611dc2565b82820282848281612e1e57fe5b04146126ef5760405162461bcd60e51b81526004018080602001828103825260218152602001806132506021913960400191505060405180910390fd5b600082821115612eb2576040805162461bcd60e51b815260206004820152601e60248201527f536166654d6174683a207375627472616374696f6e206f766572666c6f770000604482015290519081900360640190fd5b50900390565b604080516001600160a01b0380861660248301528416604482015260648082018490528251808303909101815260849091019091526020810180517bffffffffffffffffffffffffffffffffffffffffffffffffffffffff167f23b872dd00000000000000000000000000000000000000000000000000000000179052612f40908590612fd6565b50505050565b600081815260018301602052604081205480612fa9576040805162461bcd60e51b815260206004820152601860248201527f456e756d4d61703a206e6f6e6578697374656e74206b65790000000000000000604482015290519081900360640190fd5b836000016001820381548110612fbb57fe5b90600052602060002090600202016001015491505092915050565b81612fe96001600160a01b038216612740565b61303a576040805162461bcd60e51b815260206004820152601a60248201527f4552433230577261707065723a206e6f6e2d636f6e7472616374000000000000604482015290519081900360640190fd5b600080826001600160a01b0316846040518082805190602001908083835b6020831061309557805182527fffffffffffffffffffffffffffffffffffffffffffffffffffffffffffffffe09092019160209182019101613058565b6001836020036101000a0380198251168184511680821785525050505050509050019150506000604051808303816000865af19150503d80600081146130f7576040519150601f19603f3d011682016040523d82523d6000602084013e6130fc565b606091505b5091509150811561317b578051156131765780806020019051602081101561312357600080fd5b5051613176576040805162461bcd60e51b815260206004820152601e60248201527f4552433230577261707065723a206f7065726174696f6e206661696c65640000604482015290519081900360640190fd5b6131d7565b80516131ce576040805162461bcd60e51b815260206004820152601e60248201527f4552433230577261707065723a206f7065726174696f6e206661696c65640000604482015290519081900360640190fd5b80518082602001fd5b5050505050565b60405180610140016040528060006001600160a01b0316815260200160006001600160a01b0316815260200160006001600160a01b0316815260200160008019168152602001600081526020016060815260200160008152602001606081526020016060815260200160608152509056fe536166654d6174683a206d756c7469706c69636174696f6e206f766572666c6f77a26469706673582212204f4f25d43967b0ccbc0b225a569c391d84e59a9da725cf666c69a981358f0a4464736f6c63430007060033",
  "linkReferences": {},
  "deployedLinkReferences": {}
}