{
  "_format": "hh-sol-artifact-1",
  "contractName": "FixedOrderInventorySale",
  "sourceName": "contracts/sale/FixedOrderInventorySale.sol",
  "abi": [
    {
      "inputs": [
        {
          "internalType": "address",
          "name": "inventory_",
          "type": "address"
        },
        {
          "internalType": "address payable",
          "name": "payoutWallet",
          "type": "address"
        },
        {
          "internalType": "uint256",
          "name": "tokensPerSkuCapacity",
          "type": "uint256"
        }
      ],
      "stateMutability": "nonpayable",
      "type": "constructor"
    },
    {
      "anonymous": false,
      "inputs": [
        {
          "indexed": false,
          "internalType": "bytes32[]",
          "name": "names",
          "type": "bytes32[]"
        },
        {
          "indexed": false,
          "internalType": "bytes32[]",
          "name": "values",
          "type": "bytes32[]"
        }
      ],
      "name": "MagicValues",
      "type": "event"
    },
    {
      "anonymous": false,
      "inputs": [
        {
          "indexed": true,
          "internalType": "address",
          "name": "previousOwner",
          "type": "address"
        },
        {
          "indexed": true,
          "internalType": "address",
          "name": "newOwner",
          "type": "address"
        }
      ],
      "name": "OwnershipTransferred",
      "type": "event"
    },
    {
      "anonymous": false,
      "inputs": [
        {
          "indexed": false,
          "internalType": "address",
          "name": "account",
          "type": "address"
        }
      ],
      "name": "Paused",
      "type": "event"
    },
    {
      "anonymous": false,
      "inputs": [
        {
          "indexed": false,
          "internalType": "address",
          "name": "payoutWallet_",
          "type": "address"
        }
      ],
      "name": "PayoutWalletSet",
      "type": "event"
    },
    {
      "anonymous": false,
      "inputs": [
        {
          "indexed": true,
          "internalType": "address",
          "name": "purchaser",
          "type": "address"
        },
        {
          "indexed": false,
          "internalType": "address",
          "name": "recipient",
          "type": "address"
        },
        {
          "indexed": true,
          "internalType": "address",
          "name": "token",
          "type": "address"
        },
        {
          "indexed": true,
          "internalType": "bytes32",
          "name": "sku",
          "type": "bytes32"
        },
        {
          "indexed": false,
          "internalType": "uint256",
          "name": "quantity",
          "type": "uint256"
        },
        {
          "indexed": false,
          "internalType": "bytes",
          "name": "userData",
          "type": "bytes"
        },
        {
          "indexed": false,
          "internalType": "uint256",
          "name": "totalPrice",
          "type": "uint256"
        },
        {
          "indexed": false,
          "internalType": "bytes",
          "name": "extData",
          "type": "bytes"
        }
      ],
      "name": "Purchase",
      "type": "event"
    },
    {
      "anonymous": false,
      "inputs": [
        {
          "indexed": false,
          "internalType": "bytes32",
          "name": "sku",
          "type": "bytes32"
        },
        {
          "indexed": false,
          "internalType": "uint256",
          "name": "totalSupply",
          "type": "uint256"
        },
        {
          "indexed": false,
          "internalType": "uint256",
          "name": "maxQuantityPerPurchase",
          "type": "uint256"
        },
        {
          "indexed": false,
          "internalType": "address",
          "name": "notificationsReceiver",
          "type": "address"
        }
      ],
      "name": "SkuCreation",
      "type": "event"
    },
    {
      "anonymous": false,
      "inputs": [
        {
          "indexed": true,
          "internalType": "bytes32",
          "name": "sku",
          "type": "bytes32"
        },
        {
          "indexed": false,
          "internalType": "address[]",
          "name": "tokens",
          "type": "address[]"
        },
        {
          "indexed": false,
          "internalType": "uint256[]",
          "name": "prices",
          "type": "uint256[]"
        }
      ],
      "name": "SkuPricingUpdate",
      "type": "event"
    },
    {
      "anonymous": false,
      "inputs": [
        {
          "indexed": false,
          "internalType": "address",
          "name": "account",
          "type": "address"
        }
      ],
      "name": "Started",
      "type": "event"
    },
    {
      "anonymous": false,
      "inputs": [
        {
          "indexed": false,
          "internalType": "address",
          "name": "account",
          "type": "address"
        }
      ],
      "name": "Unpaused",
      "type": "event"
    },
    {
      "inputs": [],
      "name": "SUPPLY_UNLIMITED",
      "outputs": [
        {
          "internalType": "uint256",
          "name": "",
          "type": "uint256"
        }
      ],
      "stateMutability": "view",
      "type": "function"
    },
    {
      "inputs": [],
      "name": "TOKEN_ETH",
      "outputs": [
        {
          "internalType": "address",
          "name": "",
          "type": "address"
        }
      ],
      "stateMutability": "view",
      "type": "function"
    },
    {
      "inputs": [
        {
          "internalType": "uint256[]",
          "name": "tokens",
          "type": "uint256[]"
        }
      ],
      "name": "addSupply",
      "outputs": [],
      "stateMutability": "nonpayable",
      "type": "function"
    },
    {
      "inputs": [
        {
          "internalType": "address payable",
          "name": "recipient",
          "type": "address"
        },
        {
          "internalType": "address",
          "name": "token",
          "type": "address"
        },
        {
          "internalType": "bytes32",
          "name": "sku",
          "type": "bytes32"
        },
        {
          "internalType": "uint256",
          "name": "quantity",
          "type": "uint256"
        },
        {
          "internalType": "bytes",
          "name": "userData",
          "type": "bytes"
        }
      ],
      "name": "estimatePurchase",
      "outputs": [
        {
          "internalType": "uint256",
          "name": "totalPrice",
          "type": "uint256"
        },
        {
          "internalType": "bytes32[]",
          "name": "pricingData",
          "type": "bytes32[]"
        }
      ],
      "stateMutability": "view",
      "type": "function"
    },
    {
      "inputs": [
        {
          "internalType": "bytes32",
          "name": "sku",
          "type": "bytes32"
        }
      ],
      "name": "getSkuInfo",
      "outputs": [
        {
          "internalType": "uint256",
          "name": "totalSupply",
          "type": "uint256"
        },
        {
          "internalType": "uint256",
          "name": "remainingSupply",
          "type": "uint256"
        },
        {
          "internalType": "uint256",
          "name": "maxQuantityPerPurchase",
          "type": "uint256"
        },
        {
          "internalType": "address",
          "name": "notificationsReceiver",
          "type": "address"
        },
        {
          "internalType": "address[]",
          "name": "tokens",
          "type": "address[]"
        },
        {
          "internalType": "uint256[]",
          "name": "prices",
          "type": "uint256[]"
        }
      ],
      "stateMutability": "view",
      "type": "function"
    },
    {
      "inputs": [],
      "name": "getSkus",
      "outputs": [
        {
          "internalType": "bytes32[]",
          "name": "skus",
          "type": "bytes32[]"
        }
      ],
      "stateMutability": "view",
      "type": "function"
    },
    {
      "inputs": [],
      "name": "getTotalSupply",
      "outputs": [
        {
          "internalType": "uint256",
          "name": "",
          "type": "uint256"
        }
      ],
      "stateMutability": "view",
      "type": "function"
    },
    {
      "inputs": [],
      "name": "inventory",
      "outputs": [
        {
          "internalType": "address",
          "name": "",
          "type": "address"
        }
      ],
      "stateMutability": "view",
      "type": "function"
    },
    {
      "inputs": [],
      "name": "owner",
      "outputs": [
        {
          "internalType": "address",
          "name": "",
          "type": "address"
        }
      ],
      "stateMutability": "view",
      "type": "function"
    },
    {
      "inputs": [],
      "name": "pause",
      "outputs": [],
      "stateMutability": "nonpayable",
      "type": "function"
    },
    {
      "inputs": [],
      "name": "paused",
      "outputs": [
        {
          "internalType": "bool",
          "name": "",
          "type": "bool"
        }
      ],
      "stateMutability": "view",
      "type": "function"
    },
    {
      "inputs": [],
      "name": "payoutWallet",
      "outputs": [
        {
          "internalType": "address payable",
          "name": "",
          "type": "address"
        }
      ],
      "stateMutability": "view",
      "type": "function"
    },
    {
      "inputs": [
        {
          "internalType": "address payable",
          "name": "recipient",
          "type": "address"
        },
        {
          "internalType": "address",
          "name": "token",
          "type": "address"
        },
        {
          "internalType": "bytes32",
          "name": "sku",
          "type": "bytes32"
        },
        {
          "internalType": "uint256",
          "name": "quantity",
          "type": "uint256"
        },
        {
          "internalType": "bytes",
          "name": "userData",
          "type": "bytes"
        }
      ],
      "name": "purchaseFor",
      "outputs": [],
      "stateMutability": "payable",
      "type": "function"
    },
    {
      "inputs": [
        {
          "internalType": "address payable",
          "name": "payoutWallet_",
          "type": "address"
        }
      ],
      "name": "setPayoutWallet",
      "outputs": [],
      "stateMutability": "nonpayable",
      "type": "function"
    },
    {
      "inputs": [
        {
          "internalType": "uint256[]",
          "name": "indexes",
          "type": "uint256[]"
        },
        {
          "internalType": "uint256[]",
          "name": "tokens",
          "type": "uint256[]"
        }
      ],
      "name": "setSupply",
      "outputs": [],
      "stateMutability": "nonpayable",
      "type": "function"
    },
    {
      "inputs": [],
      "name": "start",
      "outputs": [],
      "stateMutability": "nonpayable",
      "type": "function"
    },
    {
      "inputs": [],
      "name": "startedAt",
      "outputs": [
        {
          "internalType": "uint256",
          "name": "",
          "type": "uint256"
        }
      ],
      "stateMutability": "view",
      "type": "function"
    },
    {
      "inputs": [],
      "name": "tokenIndex",
      "outputs": [
        {
          "internalType": "uint256",
          "name": "",
          "type": "uint256"
        }
      ],
      "stateMutability": "view",
      "type": "function"
    },
    {
      "inputs": [
        {
          "internalType": "uint256",
          "name": "",
          "type": "uint256"
        }
      ],
      "name": "tokenList",
      "outputs": [
        {
          "internalType": "uint256",
          "name": "",
          "type": "uint256"
        }
      ],
      "stateMutability": "view",
      "type": "function"
    },
    {
      "inputs": [
        {
          "internalType": "address",
          "name": "newOwner",
          "type": "address"
        }
      ],
      "name": "transferOwnership",
      "outputs": [],
      "stateMutability": "nonpayable",
      "type": "function"
    },
    {
      "inputs": [],
      "name": "unpause",
      "outputs": [],
      "stateMutability": "nonpayable",
      "type": "function"
    },
    {
      "inputs": [
        {
          "internalType": "bytes32",
          "name": "sku",
          "type": "bytes32"
        },
        {
          "internalType": "address[]",
          "name": "tokens",
          "type": "address[]"
        },
        {
          "internalType": "uint256[]",
          "name": "prices",
          "type": "uint256[]"
        }
      ],
      "name": "updateSkuPricing",
      "outputs": [],
      "stateMutability": "nonpayable",
      "type": "function"
    }
  ],
  "bytecode": "0x60e06040523480156200001157600080fd5b5060405162002fd338038062002fd3833981810160405260608110156200003757600080fd5b5080516020820151604092830151600080546001600160a01b031916339081178255945193949293919284926001928592859285928592849290918691839182917f8be0079c531659141344cd1fd0a4f28419497f9722a3daafe3b4186f6b6457e0908290a3506001600160a01b038116620000fa576040805162461bcd60e51b815260206004820152601460248201527f5061796f75743a207a65726f2061646472657373000000000000000000000000604482015290519081900360640190fd5b600180546001600160a01b0383166001600160a01b0319909116811790915560408051918252517fdd880d24a789958a6398c99c2e54ce31bc10a638cbc42f7dd34285479ae0f8559181900360200190a150506003805460ff1916911515919091179055608082905260a081905260408051600280825260608201835260009260208301908036833750506040805160028082526060820183529394506000939092509060208301908036833750508351919250680a89e968a9cbe8aa8960bb1b9173eeeeeeeeeeeeeeeeeeeeeeeeeeeeeeeeeeeeeeee91508490600090620001df57fe5b6020026020010183600081518110620001f457fe5b602002602001018281525082815250505060001960001b6f14d55414131657d5539312535255115160821b90836001815181106200022e57fe5b60200260200101836001815181106200024357fe5b60200260200101828152508281525050507fabb92614f53337043b55dc996a83ebb09adce78ec336ca188ea02180b61d1c148282604051808060200180602001838103835285818151815260200191508051906020019060200280838360005b83811015620002bd578181015183820152602001620002a3565b50505050905001838103825284818151815260200191508051906020019060200280838360005b83811015620002fe578181015183820152602001620002e4565b5050505090500194505050505060405180910390a150505050506001600160a01b038616151592506200037b915050576040805162461bcd60e51b815260206004820152601c60248201527f53616c653a207a65726f206164647265737320696e76656e746f727900000000604482015290519081900360640190fd5b5050606081901b6001600160601b03191660c05260805160a05190916001600160a01b0316612c14620003bf60003980610a3f5250806119ea525050612c146000f3fe6080604052600436106101755760003560e01c80638488bb4e116100cb578063be9a65551161007f578063d55f927311610059578063d55f9273146108eb578063f21f537d14610900578063f2fde38b1461091557610175565b8063be9a655514610811578063c4e41b2214610826578063cf3ae77b1461083b57610175565b80639e049545116100b05780639e0495451461072b5780639ead722214610752578063a963b2571461077c57610175565b80638488bb4e146107015780638da5cb5b1461071657610175565b80635c4fafc71161012d57806361bd38511161010757806361bd3851146106545780636b8f9c43146106b95780638456cb59146106ec57610175565b80635c4fafc7146104db5780635c975abb146104f05780635e6e9f701461051957610175565b806323f927c91161015e57806323f927c9146102a85780632a8a45bc146103de5780633f4ba83a146104c657610175565b80631323b0661461017a57806315d52a5c14610277575b600080fd5b34801561018657600080fd5b5061021c600480360360a081101561019d57600080fd5b6001600160a01b03823581169260208101359091169160408201359160608101359181019060a0810160808201356401000000008111156101dd57600080fd5b8201836020820111156101ef57600080fd5b8035906020019184600183028401116401000000008311171561021157600080fd5b509092509050610948565b6040518083815260200180602001828103825283818151815260200191508051906020019060200280838360005b8381101561026257818101518382015260200161024a565b50505050905001935050505060405180910390f35b34801561028357600080fd5b5061028c610a3d565b604080516001600160a01b039092168252519081900360200190f35b3480156102b457600080fd5b506103dc600480360360408110156102cb57600080fd5b8101906020810181356401000000008111156102e657600080fd5b8201836020820111156102f857600080fd5b8035906020019184602083028401116401000000008311171561031a57600080fd5b919080806020026020016040519081016040528093929190818152602001838360200280828437600092019190915250929594936020810193503591505064010000000081111561036a57600080fd5b82018360208201111561037c57600080fd5b8035906020019184602083028401116401000000008311171561039e57600080fd5b919080806020026020016040519081016040528093929190818152602001838360200280828437600092019190915250929550610a61945050505050565b005b3480156103ea57600080fd5b506104086004803603602081101561040157600080fd5b5035610ce1565b60405180878152602001868152602001858152602001846001600160a01b031681526020018060200180602001838103835285818151815260200191508051906020019060200280838360005b8381101561046d578181015183820152602001610455565b50505050905001838103825284818151815260200191508051906020019060200280838360005b838110156104ac578181015183820152602001610494565b505050509050019850505050505050505060405180910390f35b3480156104d257600080fd5b506103dc610e86565b3480156104e757600080fd5b5061028c610eef565b3480156104fc57600080fd5b50610505610f07565b604080519115158252519081900360200190f35b34801561052557600080fd5b506103dc6004803603606081101561053c57600080fd5b8135919081019060408101602082013564010000000081111561055e57600080fd5b82018360208201111561057057600080fd5b8035906020019184602083028401116401000000008311171561059257600080fd5b91908080602002602001604051908101604052809392919081815260200183836020028082843760009201919091525092959493602081019350359150506401000000008111156105e257600080fd5b8201836020820111156105f457600080fd5b8035906020019184602083028401116401000000008311171561061657600080fd5b919080806020026020016040519081016040528093929190818152602001838360200280828437600092019190915250929550610f10945050505050565b34801561066057600080fd5b506106696110ed565b60408051602080825283518183015283519192839290830191858101910280838360005b838110156106a557818101518382015260200161068d565b505050509050019250505060405180910390f35b3480156106c557600080fd5b506103dc600480360360208110156106dc57600080fd5b50356001600160a01b0316611148565b3480156106f857600080fd5b506103dc611220565b34801561070d57600080fd5b5061028c611287565b34801561072257600080fd5b5061028c611296565b34801561073757600080fd5b506107406112a5565b60408051918252519081900360200190f35b34801561075e57600080fd5b506107406004803603602081101561077557600080fd5b50356112ab565b6103dc600480360360a081101561079257600080fd5b6001600160a01b03823581169260208101359091169160408201359160608101359181019060a0810160808201356401000000008111156107d257600080fd5b8201836020820111156107e457600080fd5b8035906020019184600183028401116401000000008311171561080657600080fd5b5090925090506112cc565b34801561081d57600080fd5b506103dc6113a9565b34801561083257600080fd5b506107406113bc565b34801561084757600080fd5b506103dc6004803603602081101561085e57600080fd5b81019060208101813564010000000081111561087957600080fd5b82018360208201111561088b57600080fd5b803590602001918460208302840111640100000000831117156108ad57600080fd5b9190808060200260200160405190810160405280939291908181526020018383602002808284376000920191909152509295506113c2945050505050565b3480156108f757600080fd5b50610740611516565b34801561090c57600080fd5b5061074061151c565b34801561092157600080fd5b506103dc6004803603602081101561093857600080fd5b50356001600160a01b0316611522565b60006060600254600014156109a4576040805162461bcd60e51b815260206004820152601660248201527f537461727461626c653a206e6f74207374617274656400000000000000000000604482015290519081900360640190fd5b6109ac611593565b6109b4612b4c565b6109bc6115eb565b6001600160a01b03908116825289811660208084019190915290891660408084019190915260608301899052608083018890528051601f870183900483028101830190915285815290869086908190840183828082843760009201919091525050505060a0820152610a2d816115ef565b9250925050965096945050505050565b7f000000000000000000000000000000000000000000000000000000000000000081565b610a69611616565b610a79610a746115eb565b61166d565b60085480610ace576040805162461bcd60e51b815260206004820152601260248201527f53616c653a20656d70747920746f6b656e730000000000000000000000000000604482015290519081900360640190fd5b825180610b22576040805162461bcd60e51b815260206004820152601360248201527f53616c653a20656d70747920696e646578657300000000000000000000000000604482015290519081900360640190fd5b8251818114610b78576040805162461bcd60e51b815260206004820152601960248201527f53616c653a20696e636f6e73697374656e742061727261797300000000000000604482015290519081900360640190fd5b60075460005b838114610cd8576000878281518110610b9357fe5b6020026020010151905082811015610bf2576040805162461bcd60e51b815260206004820152601360248201527f53616c653a20696e76616c696420696e64657800000000000000000000000000604482015290519081900360640190fd5b858110610c46576040805162461bcd60e51b815260206004820152601960248201527f53616c653a20696e646578206f75742d6f662d626f756e647300000000000000604482015290519081900360640190fd5b6000878381518110610c5457fe5b602002602001015190508060001415610cb4576040805162461bcd60e51b815260206004820152601160248201527f53616c653a207a65726f20737570706c79000000000000000000000000000000604482015290519081900360640190fd5b8060088381548110610cc257fe5b6000918252602090912001555050600101610b7e565b50505050505050565b6000818152600660205260408120819081908190606090819083610d0760048301611734565b82549850905087610d5f576040805162461bcd60e51b815260206004820152601660248201527f53616c653a206e6f6e2d6578697374656e7420736b7500000000000000000000604482015290519081900360640190fd5b60018201546002830154600384015491985096506001600160a01b031694508067ffffffffffffffff81118015610d9557600080fd5b50604051908082528060200260200182016040528015610dbf578160200160208202803683370190505b5093508067ffffffffffffffff81118015610dd957600080fd5b50604051908082528060200260200182016040528015610e03578160200160208202803683370190505b50925060005b81811015610e7a57600080610e216004860184611738565b915091508160001c878481518110610e3557fe5b60200260200101906001600160a01b031690816001600160a01b0316815250508060001c868481518110610e6557fe5b60209081029190910101525050600101610e09565b50505091939550919395565b600254610eda576040805162461bcd60e51b815260206004820152601660248201527f537461727461626c653a206e6f74207374617274656400000000000000000000604482015290519081900360640190fd5b610ee5610a746115eb565b610eed6117c9565b565b73eeeeeeeeeeeeeeeeeeeeeeeeeeeeeeeeeeeeeeee81565b60035460ff1681565b610f1b610a746115eb565b815181518114610f72576040805162461bcd60e51b815260206004820152601960248201527f53616c653a20696e636f6e73697374656e742061727261797300000000000000604482015290519081900360640190fd5b60008481526006602052604090208054610fd3576040805162461bcd60e51b815260206004820152601660248201527f53616c653a206e6f6e2d6578697374656e7420736b7500000000000000000000604482015290519081900360640190fd5b600481018261101e576000610fe782611734565b905060005b818110156110175760006110008482611738565b50905061100d8482611821565b5050600101610fec565b5050611029565b611029818686611901565b857fcb3fe5489e0cd43d0f4a33d1e09a4a0463a03d0d38f56165530854e5540db1438686604051808060200180602001838103835285818151815260200191508051906020019060200280838360005b83811015611091578181015183820152602001611079565b50505050905001838103825284818151815260200191508051906020019060200280838360005b838110156110d05781810151838201526020016110b8565b5050505090500194505050505060405180910390a2505050505050565b6060600460000180548060200260200160405190810160405280929190818152602001828054801561113e57602002820191906000526020600020905b81548152602001906001019080831161112a575b5050505050905090565b611153610a746115eb565b6001600160a01b0381166111ae576040805162461bcd60e51b815260206004820152601460248201527f5061796f75743a207a65726f2061646472657373000000000000000000000000604482015290519081900360640190fd5b600180547fffffffffffffffffffffffff0000000000000000000000000000000000000000166001600160a01b03838116919091179182905560408051929091168252517fdd880d24a789958a6398c99c2e54ce31bc10a638cbc42f7dd34285479ae0f855916020908290030190a150565b600254611274576040805162461bcd60e51b815260206004820152601660248201527f537461727461626c653a206e6f74207374617274656400000000000000000000604482015290519081900360640190fd5b61127f610a746115eb565b610eed611a6a565b6001546001600160a01b031681565b6000546001600160a01b031690565b60001981565b600881815481106112bb57600080fd5b600091825260209091200154905081565b600254611320576040805162461bcd60e51b815260206004820152601660248201527f537461727461626c653a206e6f74207374617274656400000000000000000000604482015290519081900360640190fd5b611328611593565b611330612b4c565b6113386115eb565b6001600160a01b03908116825287811660208084019190915290871660408084019190915260608301879052608083018690528051601f850183900483028101830190915283815290849084908190840183828082843760009201919091525050505060a0820152610cd881611aa8565b6113b4610a746115eb565b610ee5611ad5565b60085490565b6113cd610a746115eb565b805180611421576040805162461bcd60e51b815260206004820152601260248201527f53616c653a20656d70747920746f6b656e730000000000000000000000000000604482015290519081900360640190fd5b60005b8181146114d657600083828151811061143957fe5b602002602001015190508060001415611499576040805162461bcd60e51b815260206004820152601160248201527f53616c653a207a65726f20737570706c79000000000000000000000000000000604482015290519081900360640190fd5b60088054600181810183556000929092527ff3f7a9fe364faab93b216da50a3214154f22a0a2b415b23a84c8169e8b636ee3019190915501611424565b506114e16004611734565b156115125760006114f3600482611b57565b6000908152600660205260409020805483018155600101805483019055505b5050565b60075481565b60025490565b61152d610a746115eb565b600080547fffffffffffffffffffffffff0000000000000000000000000000000000000000166001600160a01b0383811691821780845560405192939116917f8be0079c531659141344cd1fd0a4f28419497f9722a3daafe3b4186f6b6457e09190a350565b60035460ff1615610eed576040805162461bcd60e51b815260206004820152601060248201527f5061757361626c653a2070617573656400000000000000000000000000000000604482015290519081900360640190fd5b3390565b600060606115fc83611bd1565b61160583611e7b565b505060c081015160e0909101519091565b60035460ff16610eed576040805162461bcd60e51b815260206004820152601460248201527f5061757361626c653a206e6f7420706175736564000000000000000000000000604482015290519081900360640190fd5b306001600160a01b0316638da5cb5b6040518163ffffffff1660e01b815260040160206040518083038186803b1580156116a657600080fd5b505afa1580156116ba573d6000803e3d6000fd5b505050506040513d60208110156116d057600080fd5b50516001600160a01b03828116911614611731576040805162461bcd60e51b815260206004820152601660248201527f4f776e61626c653a206e6f7420746865206f776e657200000000000000000000604482015290519081900360640190fd5b50565b5490565b815460009081908310611792576040805162461bcd60e51b815260206004820152601c60248201527f456e756d4d61703a20696e646578206f7574206f6620626f756e647300000000604482015290519081900360640190fd5b60008460000184815481106117a357fe5b906000526020600020906002020190508060000154816001015492509250509250929050565b6117d1611616565b6003805460ff191690557f5db9ee0a495bf2e6ff9c91a7834c1ba4fdd244a5e8aa4e537bd38aeae4b073aa6118046115eb565b604080516001600160a01b039092168252519081900360200190a1565b600081815260018301602052604081205480156118f5578354600019808301919081019060009087908390811061185457fe5b906000526020600020906002020190508087600001848154811061187457fe5b6000918252602080832084546002909302019182556001938401549184019190915583548252898301905260409020908401905586548790806118b357fe5b60008281526020808220600260001990940193840201828155600190810183905592909355888152898201909252604082209190915594506118fb9350505050565b60009150505b92915050565b60005b82518110156119e757600083828151811061191b57fe5b6020026020010151905060006001600160a01b0316816001600160a01b0316141561198d576040805162461bcd60e51b815260206004820152601860248201527f53616c653a207a65726f206164647265737320746f6b656e0000000000000000604482015290519081900360640190fd5b600083838151811061199b57fe5b6020026020010151905080600014156119c7576119c1866001600160a01b038416611821565b506119dd565b6119db866001600160a01b03841683611f18565b505b5050600101611904565b507f0000000000000000000000000000000000000000000000000000000000000000611a1284611734565b1115611a65576040805162461bcd60e51b815260206004820152601560248201527f53616c653a20746f6f206d616e7920746f6b656e730000000000000000000000604482015290519081900360640190fd5b505050565b611a72611593565b6003805460ff191660011790557f62e78cea01bee320cd4e420270b5ea74000d11b0c9f74754ebdbfc544b05a2586118046115eb565b611ab181611bd1565b611aba81611e7b565b611ac381611fb2565b611acc81612101565b611731816121b2565b60025415611b2a576040805162461bcd60e51b815260206004820152601260248201527f537461727461626c653a20737461727465640000000000000000000000000000604482015290519081900360640190fd5b426002557f27029695aa5f602a4ee81f4c32dfa86e562f200a17966496f3a7c3f2ec0f94176118046115eb565b81546000908210611baf576040805162461bcd60e51b815260206004820152601c60248201527f456e756d5365743a20696e646578206f7574206f6620626f756e647300000000604482015290519081900360640190fd5b826000018281548110611bbe57fe5b9060005260206000200154905092915050565b60208101516001600160a01b0316611c30576040805162461bcd60e51b815260206004820152601c60248201527f53616c653a207a65726f206164647265737320726563697069656e7400000000604482015290519081900360640190fd5b60408101516001600160a01b0316611c8f576040805162461bcd60e51b815260206004820152601860248201527f53616c653a207a65726f206164647265737320746f6b656e0000000000000000604482015290519081900360640190fd5b6080810151611ce5576040805162461bcd60e51b815260206004820152601c60248201527f53616c653a207a65726f207175616e7469747920707572636861736500000000604482015290519081900360640190fd5b606081015160009081526006602052604090208054611d4b576040805162461bcd60e51b815260206004820152601660248201527f53616c653a206e6f6e2d6578697374656e7420736b7500000000000000000000604482015290519081900360640190fd5b816080015181600201541015611da8576040805162461bcd60e51b815260206004820152601860248201527f53616c653a2061626f7665206d6178207175616e746974790000000000000000604482015290519081900360640190fd5b805460001914611e0f57816080015181600101541015611e0f576040805162461bcd60e51b815260206004820152601960248201527f53616c653a20696e73756666696369656e7420737570706c7900000000000000604482015290519081900360640190fd5b60408201516001600160a01b0316611e2a6004830182612697565b611a65576040805162461bcd60e51b815260206004820152601c60248201527f53616c653a206e6f6e2d6578697374656e7420736b7520746f6b656e00000000604482015290519081900360640190fd5b606081015160009081526006602052604090208054611ee1576040805162461bcd60e51b815260206004820152601560248201527f53616c653a20756e737570706f7274656420534b550000000000000000000000604482015290519081900360640190fd5b600481016000611ef184836126af565b9050611f0a84608001518261271f90919063ffffffff16565b60c090940193909352505050565b600082815260018401602052604081205480611f7d575050604080518082018252838152602080820184815286546001818101895560008981528481209551600290930290950191825591519082015586548684528188019092529290912055611fab565b82856000016001830381548110611f9057fe5b90600052602060002090600202016001018190555060009150505b9392505050565b60408101516001600160a01b031673eeeeeeeeeeeeeeeeeeeeeeeeeeeeeeeeeeeeeeee14156120d5578060c00151341015612034576040805162461bcd60e51b815260206004820152601660248201527f53616c653a20696e73756666696369656e742045544800000000000000000000604482015290519081900360640190fd5b60015460c08201516040516001600160a01b039092169181156108fc0291906000818181858888f19350505050158015612072573d6000803e3d6000fd5b50600061208c8260c001513461277890919063ffffffff16565b905080156120cf5781516040516001600160a01b039091169082156108fc029083906000818181858888f193505050501580156120cd573d6000803e3d6000fd5b505b50611731565b6117316120e06115eb565b60015460c084015160408501516001600160a01b03908116939216906127d5565b61210a81612863565b806080015167ffffffffffffffff8111801561212557600080fd5b5060405190808252806020026020018201604052801561214f578160200160208202803683370190505b506101208201526007546000905b826080015182146121ab576008818154811061217557fe5b906000526020600020015460001b836101200151838151811061219457fe5b60209081029190910101526001918201910161215d565b6007555050565b806060015181604001516001600160a01b031682600001516001600160a01b03167f29f844483ca6b10b5c0611d039afc15ce8f6380e905307b381c3a8ee4e90e11e846020015185608001518660a001518760c001518860e001518961010001518a610120015160405160200180848051906020019060200280838360005b83811015612249578181015183820152602001612231565b50505050905001838051906020019060200280838360005b83811015612279578181015183820152602001612261565b50505050905001828051906020019060200280838360005b838110156122a9578181015183820152602001612291565b50505050905001935050505060405160208183030381529060405260405180866001600160a01b031681526020018581526020018060200184815260200180602001838103835286818151815260200191508051906020019080838360005b83811015612320578181015183820152602001612308565b50505050905090810190601f16801561234d5780820380516001836020036101000a031916815260200191505b50838103825284518152845160209182019186019080838360005b83811015612380578181015183820152602001612368565b50505050905090810190601f1680156123ad5780820380516001836020036101000a031916815260200191505b5097505050505050505060405180910390a460608101516000908152600660205260409020600301546001600160a01b03168015611512576361eceae860e01b7bffffffffffffffffffffffffffffffffffffffffffffffffffffffff1916816001600160a01b03166361eceae8846000015185602001518660400151876060015188608001518960a001518a60c001518b60e001518c61010001518d61012001516040518b63ffffffff1660e01b8152600401808b6001600160a01b031681526020018a6001600160a01b03168152602001896001600160a01b031681526020018881526020018781526020018060200186815260200180602001806020018060200185810385528a818151815260200191508051906020019080838360005b838110156124e65781810151838201526020016124ce565b50505050905090810190601f1680156125135780820380516001836020036101000a031916815260200191505b508581038452885181528851602091820191808b01910280838360005b83811015612548578181015183820152602001612530565b50505050905001858103835287818151815260200191508051906020019060200280838360005b8381101561258757818101518382015260200161256f565b50505050905001858103825286818151815260200191508051906020019060200280838360005b838110156125c65781810151838201526020016125ae565b505050509050019e505050505050505050505050505050602060405180830381600087803b1580156125f757600080fd5b505af115801561260b573d6000803e3d6000fd5b505050506040513d602081101561262157600080fd5b50517fffffffff000000000000000000000000000000000000000000000000000000001614611512576040805162461bcd60e51b815260206004820152601a60248201527f53616c653a206e6f74696669636174696f6e2072656675736564000000000000604482015290519081900360640190fd5b60009081526001919091016020526040902054151590565b60408201516000906126cb9083906001600160a01b03166128ae565b9050806118fb576040805162461bcd60e51b815260206004820152601f60248201527f53616c653a20756e737570706f72746564207061796d656e7420746f6b656e00604482015290519081900360640190fd5b60008261272e575060006118fb565b8282028284828161273b57fe5b0414611fab5760405162461bcd60e51b8152600401808060200182810382526021815260200180612bbe6021913960400191505060405180910390fd5b6000828211156127cf576040805162461bcd60e51b815260206004820152601e60248201527f536166654d6174683a207375627472616374696f6e206f766572666c6f770000604482015290519081900360640190fd5b50900390565b604080516001600160a01b0380861660248301528416604482015260648082018490528251808303909101815260849091019091526020810180517bffffffffffffffffffffffffffffffffffffffffffffffffffffffff167f23b872dd0000000000000000000000000000000000000000000000000000000017905261285d90859061293e565b50505050565b60608101516000908152600660205260409020805460001914611512576080820151600182015461289391612778565b60608301516000908152600660205260409020600101555050565b600081815260018301602052604081205480612911576040805162461bcd60e51b815260206004820152601860248201527f456e756d4d61703a206e6f6e6578697374656e74206b65790000000000000000604482015290519081900360640190fd5b83600001600182038154811061292357fe5b90600052602060002090600202016001015491505092915050565b816129516001600160a01b038216612b46565b6129a2576040805162461bcd60e51b815260206004820152601a60248201527f4552433230577261707065723a206e6f6e2d636f6e7472616374000000000000604482015290519081900360640190fd5b600080826001600160a01b0316846040518082805190602001908083835b602083106129fd57805182527fffffffffffffffffffffffffffffffffffffffffffffffffffffffffffffffe090920191602091820191016129c0565b6001836020036101000a0380198251168184511680821785525050505050509050019150506000604051808303816000865af19150503d8060008114612a5f576040519150601f19603f3d011682016040523d82523d6000602084013e612a64565b606091505b50915091508115612ae357805115612ade57808060200190516020811015612a8b57600080fd5b5051612ade576040805162461bcd60e51b815260206004820152601e60248201527f4552433230577261707065723a206f7065726174696f6e206661696c65640000604482015290519081900360640190fd5b612b3f565b8051612b36576040805162461bcd60e51b815260206004820152601e60248201527f4552433230577261707065723a206f7065726174696f6e206661696c65640000604482015290519081900360640190fd5b80518082602001fd5b5050505050565b3b151590565b60405180610140016040528060006001600160a01b0316815260200160006001600160a01b0316815260200160006001600160a01b0316815260200160008019168152602001600081526020016060815260200160008152602001606081526020016060815260200160608152509056fe536166654d6174683a206d756c7469706c69636174696f6e206f766572666c6f77a2646970667358221220e91ea586dd8d6e66fc1de22016f28aa034bb7c7316a0cf63cbb029b45425576864736f6c63430007060033",
  "linkReferences": {},
  "deployedLinkReferences": {}
}